{
  "_format": "hh-sol-artifact-1",
  "contractName": "Energy",
  "sourceName": "contracts/Energy.sol",
  "abi": [
    {
      "inputs": [
        {
          "internalType": "address",
          "name": "_energyToken",
          "type": "address"
        }
      ],
      "stateMutability": "nonpayable",
      "type": "constructor"
    },
    {
      "inputs": [],
      "name": "AddressZeroDetected",
      "type": "error"
    },
    {
      "inputs": [],
      "name": "CallerNotProducer",
      "type": "error"
    },
    {
      "inputs": [],
      "name": "InsufficientBalance",
      "type": "error"
    },
    {
      "inputs": [],
      "name": "InsufficientBuyerCredits",
      "type": "error"
    },
    {
      "inputs": [],
      "name": "InsufficientTokenBalance",
      "type": "error"
    },
    {
      "inputs": [],
      "name": "NoListingsFound",
      "type": "error"
    },
    {
      "inputs": [],
      "name": "NotEnoughEnergyCredits",
      "type": "error"
    },
    {
      "inputs": [],
      "name": "OnlyOwnerAllowed",
      "type": "error"
    },
    {
      "inputs": [],
      "name": "OnlyProducerAllowed",
      "type": "error"
    },
    {
      "inputs": [],
      "name": "ProducerAlreadyRegistered",
      "type": "error"
    },
    {
      "inputs": [],
      "name": "ReentrancyGuardReentrantCall",
      "type": "error"
    },
    {
      "inputs": [],
      "name": "TransferFailed",
      "type": "error"
    },
    {
      "inputs": [],
      "name": "UpdatedRateIsSame",
      "type": "error"
    },
    {
      "inputs": [],
      "name": "UpdatedpriceIsSame",
      "type": "error"
    },
    {
      "inputs": [],
      "name": "ZeroValueNotAllowed",
      "type": "error"
    },
    {
      "anonymous": false,
      "inputs": [
        {
          "indexed": true,
          "internalType": "address",
          "name": "user",
          "type": "address"
        },
        {
          "indexed": false,
          "internalType": "uint256",
          "name": "amount",
          "type": "uint256"
        }
      ],
      "name": "Deposit",
      "type": "event"
    },
    {
      "anonymous": false,
      "inputs": [
        {
          "indexed": true,
          "internalType": "address",
          "name": "buyer",
          "type": "address"
        },
        {
          "indexed": false,
          "internalType": "address",
          "name": "producer",
          "type": "address"
        },
        {
          "indexed": false,
          "internalType": "uint256",
          "name": "unitAmount",
          "type": "uint256"
        }
      ],
      "name": "EnergyCreditsPurchased",
      "type": "event"
    },
    {
      "anonymous": false,
      "inputs": [
        {
          "indexed": true,
          "internalType": "address",
          "name": "producer",
          "type": "address"
        },
        {
          "indexed": false,
          "internalType": "uint256",
          "name": "units",
          "type": "uint256"
        },
        {
          "indexed": false,
          "internalType": "uint256",
          "name": "rate",
          "type": "uint256"
        }
      ],
      "name": "ListingSuccessful",
      "type": "event"
    },
    {
      "anonymous": false,
      "inputs": [
        {
          "indexed": true,
          "internalType": "address",
          "name": "user",
          "type": "address"
        },
        {
          "indexed": false,
          "internalType": "string",
          "name": "typeOfTx",
          "type": "string"
        },
        {
          "indexed": false,
          "internalType": "uint256",
          "name": "amount",
          "type": "uint256"
        },
        {
          "indexed": false,
          "internalType": "uint256",
          "name": "units",
          "type": "uint256"
        },
        {
          "indexed": false,
          "internalType": "uint256",
          "name": "timestamp",
          "type": "uint256"
        }
      ],
      "name": "MarketActivity",
      "type": "event"
    },
    {
      "anonymous": false,
      "inputs": [
        {
          "indexed": true,
          "internalType": "address",
          "name": "producer",
          "type": "address"
        },
        {
          "indexed": false,
          "internalType": "uint256",
          "name": "pricePerUnit",
          "type": "uint256"
        }
      ],
      "name": "RateUpdated",
      "type": "event"
    },
    {
      "anonymous": false,
      "inputs": [
        {
          "indexed": true,
          "internalType": "address",
          "name": "producer",
          "type": "address"
        },
        {
          "indexed": false,
          "internalType": "uint256",
          "name": "energyCredits",
          "type": "uint256"
        }
      ],
      "name": "UnitsUpdated",
      "type": "event"
    },
    {
      "anonymous": false,
      "inputs": [
        {
          "indexed": true,
          "internalType": "address",
          "name": "producer",
          "type": "address"
        },
        {
          "indexed": false,
          "internalType": "uint256",
          "name": "amount",
          "type": "uint256"
        }
      ],
      "name": "WithdrawalSuccessful",
      "type": "event"
    },
    {
      "inputs": [
        {
          "internalType": "uint256",
          "name": "rate",
          "type": "uint256"
        },
        {
          "internalType": "uint256",
          "name": "units",
          "type": "uint256"
        },
        {
          "internalType": "uint256",
          "name": "minorder",
          "type": "uint256"
        },
        {
          "internalType": "uint256",
          "name": "maxorder",
          "type": "uint256"
        }
      ],
      "name": "addListing",
      "outputs": [],
      "stateMutability": "nonpayable",
      "type": "function"
    },
    {
      "inputs": [
        {
          "internalType": "address",
          "name": "",
          "type": "address"
        }
      ],
      "name": "balances",
      "outputs": [
        {
          "internalType": "uint256",
          "name": "",
          "type": "uint256"
        }
      ],
      "stateMutability": "view",
      "type": "function"
    },
    {
      "inputs": [
        {
          "internalType": "uint256",
          "name": "amount",
          "type": "uint256"
        }
      ],
      "name": "deposit",
      "outputs": [],
      "stateMutability": "nonpayable",
      "type": "function"
    },
    {
      "inputs": [
        {
          "internalType": "address",
          "name": "",
          "type": "address"
        }
      ],
      "name": "depositedBalances",
      "outputs": [
        {
          "internalType": "uint256",
          "name": "",
          "type": "uint256"
        }
      ],
      "stateMutability": "view",
      "type": "function"
    },
    {
      "inputs": [],
      "name": "energyToken",
      "outputs": [
        {
          "internalType": "contract IERC20",
          "name": "",
          "type": "address"
        }
      ],
      "stateMutability": "view",
      "type": "function"
    },
    {
      "inputs": [],
      "name": "getAllListings",
      "outputs": [
        {
          "components": [
            {
              "internalType": "uint256",
              "name": "id",
              "type": "uint256"
            },
            {
              "internalType": "uint256",
              "name": "rate",
              "type": "uint256"
            },
            {
              "internalType": "uint256",
              "name": "units",
              "type": "uint256"
            },
            {
              "internalType": "uint256",
              "name": "minorder",
              "type": "uint256"
            },
            {
              "internalType": "uint256",
              "name": "maxOrder",
              "type": "uint256"
            },
            {
              "internalType": "uint256",
              "name": "timestamp",
              "type": "uint256"
            },
            {
              "internalType": "address",
              "name": "producer",
              "type": "address"
            },
            {
              "components": [
                {
                  "internalType": "uint256",
                  "name": "id",
                  "type": "uint256"
                },
                {
                  "internalType": "uint256",
                  "name": "units",
                  "type": "uint256"
                },
                {
                  "internalType": "uint256",
                  "name": "rate",
                  "type": "uint256"
                },
                {
                  "internalType": "uint256",
                  "name": "amount",
                  "type": "uint256"
                },
                {
                  "internalType": "uint256",
                  "name": "timestamp",
                  "type": "uint256"
                }
              ],
              "internalType": "struct Energy.ListingTransaction[]",
              "name": "transactions",
              "type": "tuple[]"
            }
          ],
          "internalType": "struct Energy.Listing[]",
          "name": "",
          "type": "tuple[]"
        }
      ],
      "stateMutability": "view",
      "type": "function"
    },
    {
      "inputs": [],
      "name": "getBalance",
      "outputs": [
        {
          "internalType": "uint256",
          "name": "",
          "type": "uint256"
        }
      ],
      "stateMutability": "view",
      "type": "function"
    },
    {
      "inputs": [],
      "name": "getContractBalance",
      "outputs": [
        {
          "internalType": "uint256",
          "name": "",
          "type": "uint256"
        }
      ],
      "stateMutability": "view",
      "type": "function"
    },
    {
      "inputs": [],
      "name": "getDepositedBalance",
      "outputs": [
        {
          "internalType": "uint256",
          "name": "",
          "type": "uint256"
        }
      ],
      "stateMutability": "view",
      "type": "function"
    },
    {
      "inputs": [
        {
          "internalType": "address",
          "name": "",
          "type": "address"
        }
      ],
      "name": "listings",
      "outputs": [
        {
          "internalType": "uint256",
          "name": "id",
          "type": "uint256"
        },
        {
          "internalType": "uint256",
          "name": "rate",
          "type": "uint256"
        },
        {
          "internalType": "uint256",
          "name": "units",
          "type": "uint256"
        },
        {
          "internalType": "uint256",
          "name": "minorder",
          "type": "uint256"
        },
        {
          "internalType": "uint256",
          "name": "maxOrder",
          "type": "uint256"
        },
        {
          "internalType": "uint256",
          "name": "timestamp",
          "type": "uint256"
        },
        {
          "internalType": "address",
          "name": "producer",
          "type": "address"
        }
      ],
      "stateMutability": "view",
      "type": "function"
    },
    {
      "inputs": [],
      "name": "owner",
      "outputs": [
        {
          "internalType": "address",
          "name": "",
          "type": "address"
        }
      ],
      "stateMutability": "view",
      "type": "function"
    },
    {
      "inputs": [
        {
          "internalType": "address",
          "name": "producer",
          "type": "address"
        },
        {
          "internalType": "uint256",
          "name": "unitAmount",
          "type": "uint256"
        }
      ],
      "name": "purchaseEnergyCredits",
      "outputs": [],
      "stateMutability": "nonpayable",
      "type": "function"
    },
    {
      "inputs": [
        {
          "internalType": "address",
          "name": "",
          "type": "address"
        },
        {
          "internalType": "uint256",
          "name": "",
          "type": "uint256"
        }
      ],
      "name": "transactions",
      "outputs": [
        {
          "internalType": "uint256",
          "name": "id",
          "type": "uint256"
        },
        {
          "internalType": "string",
          "name": "typeOfTx",
          "type": "string"
        },
        {
          "internalType": "uint256",
          "name": "amount",
          "type": "uint256"
        },
        {
          "internalType": "uint256",
          "name": "units",
          "type": "uint256"
        },
        {
          "internalType": "uint256",
          "name": "timestamp",
          "type": "uint256"
        },
        {
          "internalType": "address",
          "name": "user",
          "type": "address"
        }
      ],
      "stateMutability": "view",
      "type": "function"
    },
    {
      "inputs": [
        {
          "internalType": "uint256",
          "name": "_newCredits",
          "type": "uint256"
        }
      ],
      "name": "updateEnergyCredits",
      "outputs": [],
      "stateMutability": "nonpayable",
      "type": "function"
    },
    {
      "inputs": [
        {
          "internalType": "uint256",
          "name": "_newRate",
          "type": "uint256"
        }
      ],
      "name": "updateRate",
      "outputs": [],
      "stateMutability": "nonpayable",
      "type": "function"
    },
    {
      "inputs": [
        {
          "internalType": "uint256",
          "name": "amount",
          "type": "uint256"
        }
      ],
      "name": "withdraw",
      "outputs": [],
      "stateMutability": "nonpayable",
      "type": "function"
    }
  ],
  "bytecode": "0x60806040523480156200001157600080fd5b5060405162002e2e38038062002e2e833981810160405281019062000037919062000132565b600160008190555033600160006101000a81548173ffffffffffffffffffffffffffffffffffffffff021916908373ffffffffffffffffffffffffffffffffffffffff16021790555080600260006101000a81548173ffffffffffffffffffffffffffffffffffffffff021916908373ffffffffffffffffffffffffffffffffffffffff1602179055505062000164565b600080fd5b600073ffffffffffffffffffffffffffffffffffffffff82169050919050565b6000620000fa82620000cd565b9050919050565b6200010c81620000ed565b81146200011857600080fd5b50565b6000815190506200012c8162000101565b92915050565b6000602082840312156200014b576200014a620000c8565b5b60006200015b848285016200011b565b91505092915050565b612cba80620001746000396000f3fe608060405234801561001057600080fd5b50600436106101005760003560e01c806365d96c82116100975780638145037f116100665780638145037f146102b85780638da5cb5b146102d4578063ae73ccec146102f2578063b6b55f251461031057610100565b806365d96c821461021857806369ea17711461024e5780636f9fb98a1461026a5780637d9953111461028857610100565b80632e1a7d4d116100d35780632e1a7d4d146101a4578063462f4fc2146101c05780634ec7fb81146101de57806362a2b7cf146101fc57610100565b80630935e7dc1461010557806312065fe014610121578063145381281461013f57806327e235e314610174575b600080fd5b61011f600480360381019061011a9190612092565b61032c565b005b61012961080e565b60405161013691906120e1565b60405180910390f35b61015960048036038101906101549190612092565b61091c565b60405161016b9695949392919061219b565b60405180910390f35b61018e60048036038101906101899190612203565b610a1d565b60405161019b91906120e1565b60405180910390f35b6101be60048036038101906101b99190612230565b610a35565b005b6101c8610d65565b6040516101d591906120e1565b60405180910390f35b6101e6610dac565b6040516101f391906122bc565b60405180910390f35b61021660048036038101906102119190612230565b610dd2565b005b610232600480360381019061022d9190612203565b611128565b60405161024597969594939291906122d7565b60405180910390f35b61026860048036038101906102639190612230565b61118a565b005b6102726114e0565b60405161027f91906120e1565b60405180910390f35b6102a2600480360381019061029d9190612203565b61160a565b6040516102af91906120e1565b60405180910390f35b6102d260048036038101906102cd9190612346565b611622565b005b6102dc6119df565b6040516102e991906123ad565b60405180910390f35b6102fa611a05565b604051610307919061266f565b60405180910390f35b61032a60048036038101906103259190612230565b611c53565b005b600073ffffffffffffffffffffffffffffffffffffffff163373ffffffffffffffffffffffffffffffffffffffff1603610392576040517f287170f900000000000000000000000000000000000000000000000000000000815260040160405180910390fd5b600073ffffffffffffffffffffffffffffffffffffffff168273ffffffffffffffffffffffffffffffffffffffff16036103f8576040517f287170f900000000000000000000000000000000000000000000000000000000815260040160405180910390fd5b60008103610432576040517f9cf8540c00000000000000000000000000000000000000000000000000000000815260040160405180910390fd5b6000600660008473ffffffffffffffffffffffffffffffffffffffff1673ffffffffffffffffffffffffffffffffffffffff1681526020019081526020016000209050600073ffffffffffffffffffffffffffffffffffffffff168160060160009054906101000a900473ffffffffffffffffffffffffffffffffffffffff1673ffffffffffffffffffffffffffffffffffffffff16036104ff576040517f994c19f200000000000000000000000000000000000000000000000000000000815260040160405180910390fd5b818160020154101561053d576040517f23fc123c00000000000000000000000000000000000000000000000000000000815260040160405180910390fd5b600081600101548361054f91906126c0565b905080600760003373ffffffffffffffffffffffffffffffffffffffff1673ffffffffffffffffffffffffffffffffffffffff1681526020019081526020016000205410156105ca576040517fe4455cae00000000000000000000000000000000000000000000000000000000815260040160405180910390fd5b80600760003373ffffffffffffffffffffffffffffffffffffffff1673ffffffffffffffffffffffffffffffffffffffff16815260200190815260200160002060008282546106199190612702565b9250508190555080600460008673ffffffffffffffffffffffffffffffffffffffff1673ffffffffffffffffffffffffffffffffffffffff168152602001908152602001600020600082825461066f9190612736565b925050819055508282600201600082825461068a9190612702565b925050819055506000600183600701805490506106a79190612736565b9050826007016040518060a0016040528083815260200186815260200185600101548152602001848152602001428152509080600181540180825580915050600190039060005260206000209060050201600090919091909150600082015181600001556020820151816001015560408201518160020155606082015181600301556080820151816004015550506107766040518060400160405280600881526020017f5075726368617365000000000000000000000000000000000000000000000000815250838633611e15565b6107b76040518060400160405280600481526020017f536f6c6400000000000000000000000000000000000000000000000000000000815250838688611e15565b3373ffffffffffffffffffffffffffffffffffffffff167f718ea2b924abd563212f61f1942c1abd50d26d266f0d5fbba7c67c157706f34686866040516107ff92919061276a565b60405180910390a25050505050565b60008073ffffffffffffffffffffffffffffffffffffffff16600660003373ffffffffffffffffffffffffffffffffffffffff1673ffffffffffffffffffffffffffffffffffffffff16815260200190815260200160002060060160009054906101000a900473ffffffffffffffffffffffffffffffffffffffff1673ffffffffffffffffffffffffffffffffffffffff16036108d7576040517f6145020a00000000000000000000000000000000000000000000000000000000815260040160405180910390fd5b600460003373ffffffffffffffffffffffffffffffffffffffff1673ffffffffffffffffffffffffffffffffffffffff16815260200190815260200160002054905090565b6005602052816000526040600020818154811061093857600080fd5b906000526020600020906006020160009150915050806000015490806001018054610962906127c2565b80601f016020809104026020016040519081016040528092919081815260200182805461098e906127c2565b80156109db5780601f106109b0576101008083540402835291602001916109db565b820191906000526020600020905b8154815290600101906020018083116109be57829003601f168201915b5050505050908060020154908060030154908060040154908060050160009054906101000a900473ffffffffffffffffffffffffffffffffffffffff16905086565b60046020528060005260406000206000915090505481565b600073ffffffffffffffffffffffffffffffffffffffff16600660003373ffffffffffffffffffffffffffffffffffffffff1673ffffffffffffffffffffffffffffffffffffffff16815260200190815260200160002060060160009054906101000a900473ffffffffffffffffffffffffffffffffffffffff1673ffffffffffffffffffffffffffffffffffffffff1603610afd576040517f6145020a00000000000000000000000000000000000000000000000000000000815260040160405180910390fd5b600073ffffffffffffffffffffffffffffffffffffffff163373ffffffffffffffffffffffffffffffffffffffff1603610b63576040517f287170f900000000000000000000000000000000000000000000000000000000815260040160405180910390fd5b60008103610b9d576040517f9cf8540c00000000000000000000000000000000000000000000000000000000815260040160405180910390fd5b80600760003373ffffffffffffffffffffffffffffffffffffffff1673ffffffffffffffffffffffffffffffffffffffff1681526020019081526020016000206000828254610bec9190612702565b92505081905550600260009054906101000a900473ffffffffffffffffffffffffffffffffffffffff1673ffffffffffffffffffffffffffffffffffffffff1663a9059cbb33836040518363ffffffff1660e01b8152600401610c5092919061276a565b6020604051808303816000875af1158015610c6f573d6000803e3d6000fd5b505050506040513d601f19601f82011682018060405250810190610c93919061282b565b610cd2576040517f08c379a0000000000000000000000000000000000000000000000000000000008152600401610cc9906128a4565b60405180910390fd5b610d146040518060400160405280600a81526020017f5769746864726177616c0000000000000000000000000000000000000000000081525082600033611e15565b3373ffffffffffffffffffffffffffffffffffffffff167ff4f855c53853d0277a9ff688aadbfe4cb795ca1d5af41704b62cb539f89939ec82604051610d5a91906120e1565b60405180910390a250565b6000600760003373ffffffffffffffffffffffffffffffffffffffff1673ffffffffffffffffffffffffffffffffffffffff16815260200190815260200160002054905090565b600260009054906101000a900473ffffffffffffffffffffffffffffffffffffffff1681565b600073ffffffffffffffffffffffffffffffffffffffff16600660003373ffffffffffffffffffffffffffffffffffffffff1673ffffffffffffffffffffffffffffffffffffffff16815260200190815260200160002060060160009054906101000a900473ffffffffffffffffffffffffffffffffffffffff1673ffffffffffffffffffffffffffffffffffffffff1603610e9a576040517f6145020a00000000000000000000000000000000000000000000000000000000815260040160405180910390fd5b6000600660003373ffffffffffffffffffffffffffffffffffffffff1673ffffffffffffffffffffffffffffffffffffffff1681526020019081526020016000209050600073ffffffffffffffffffffffffffffffffffffffff163373ffffffffffffffffffffffffffffffffffffffff1603610f43576040517f287170f900000000000000000000000000000000000000000000000000000000815260040160405180910390fd5b600073ffffffffffffffffffffffffffffffffffffffff168160060160009054906101000a900473ffffffffffffffffffffffffffffffffffffffff1673ffffffffffffffffffffffffffffffffffffffff1603610fcd576040517f994c19f200000000000000000000000000000000000000000000000000000000815260040160405180910390fd5b3373ffffffffffffffffffffffffffffffffffffffff168160060160009054906101000a900473ffffffffffffffffffffffffffffffffffffffff1673ffffffffffffffffffffffffffffffffffffffff1614611056576040517fa93c36ae00000000000000000000000000000000000000000000000000000000815260040160405180910390fd5b81816002015403611093576040517f18b048f300000000000000000000000000000000000000000000000000000000815260040160405180910390fd5b600082036110cd576040517f9cf8540c00000000000000000000000000000000000000000000000000000000815260040160405180910390fd5b8181600201819055503373ffffffffffffffffffffffffffffffffffffffff167f873d3ad8530cf7f4b0f345bed21dd0978146051a43f99945c7ebbfa87ab62e588360405161111c91906120e1565b60405180910390a25050565b60066020528060005260406000206000915090508060000154908060010154908060020154908060030154908060040154908060050154908060060160009054906101000a900473ffffffffffffffffffffffffffffffffffffffff16905087565b600073ffffffffffffffffffffffffffffffffffffffff16600660003373ffffffffffffffffffffffffffffffffffffffff1673ffffffffffffffffffffffffffffffffffffffff16815260200190815260200160002060060160009054906101000a900473ffffffffffffffffffffffffffffffffffffffff1673ffffffffffffffffffffffffffffffffffffffff1603611252576040517f6145020a00000000000000000000000000000000000000000000000000000000815260040160405180910390fd5b6000600660003373ffffffffffffffffffffffffffffffffffffffff1673ffffffffffffffffffffffffffffffffffffffff1681526020019081526020016000209050600073ffffffffffffffffffffffffffffffffffffffff163373ffffffffffffffffffffffffffffffffffffffff16036112fb576040517f287170f900000000000000000000000000000000000000000000000000000000815260040160405180910390fd5b600073ffffffffffffffffffffffffffffffffffffffff168160060160009054906101000a900473ffffffffffffffffffffffffffffffffffffffff1673ffffffffffffffffffffffffffffffffffffffff1603611385576040517f994c19f200000000000000000000000000000000000000000000000000000000815260040160405180910390fd5b3373ffffffffffffffffffffffffffffffffffffffff168160060160009054906101000a900473ffffffffffffffffffffffffffffffffffffffff1673ffffffffffffffffffffffffffffffffffffffff161461140e576040517fa93c36ae00000000000000000000000000000000000000000000000000000000815260040160405180910390fd5b8181600101540361144b576040517f4aa02f9600000000000000000000000000000000000000000000000000000000815260040160405180910390fd5b60008203611485576040517f9cf8540c00000000000000000000000000000000000000000000000000000000815260040160405180910390fd5b8181600101819055503373ffffffffffffffffffffffffffffffffffffffff167f492de3ddd6d733b461680f630083e98c567b860343e3f9ac763ee61d7c57b548836040516114d491906120e1565b60405180910390a25050565b6000600160009054906101000a900473ffffffffffffffffffffffffffffffffffffffff1673ffffffffffffffffffffffffffffffffffffffff163373ffffffffffffffffffffffffffffffffffffffff1614611569576040517f717bf7f800000000000000000000000000000000000000000000000000000000815260040160405180910390fd5b600260009054906101000a900473ffffffffffffffffffffffffffffffffffffffff1673ffffffffffffffffffffffffffffffffffffffff166370a08231306040518263ffffffff1660e01b81526004016115c491906123ad565b602060405180830381865afa1580156115e1573d6000803e3d6000fd5b505050506040513d601f19601f8201168201806040525081019061160591906128d9565b905090565b60076020528060005260406000206000915090505481565b600073ffffffffffffffffffffffffffffffffffffffff163373ffffffffffffffffffffffffffffffffffffffff1603611688576040517f287170f900000000000000000000000000000000000000000000000000000000815260040160405180910390fd5b60008414806116975750600083145b806116a25750600082145b806116ad5750600081145b156116e4576040517f9cf8540c00000000000000000000000000000000000000000000000000000000815260040160405180910390fd5b600060016003805490506116f89190612736565b905080600660003373ffffffffffffffffffffffffffffffffffffffff1673ffffffffffffffffffffffffffffffffffffffff1681526020019081526020016000206000018190555084600660003373ffffffffffffffffffffffffffffffffffffffff1673ffffffffffffffffffffffffffffffffffffffff1681526020019081526020016000206001018190555083600660003373ffffffffffffffffffffffffffffffffffffffff1673ffffffffffffffffffffffffffffffffffffffff1681526020019081526020016000206002018190555082600660003373ffffffffffffffffffffffffffffffffffffffff1673ffffffffffffffffffffffffffffffffffffffff1681526020019081526020016000206003018190555081600660003373ffffffffffffffffffffffffffffffffffffffff1673ffffffffffffffffffffffffffffffffffffffff1681526020019081526020016000206004018190555042600660003373ffffffffffffffffffffffffffffffffffffffff1673ffffffffffffffffffffffffffffffffffffffff1681526020019081526020016000206005018190555033600660003373ffffffffffffffffffffffffffffffffffffffff1673ffffffffffffffffffffffffffffffffffffffff16815260200190815260200160002060060160006101000a81548173ffffffffffffffffffffffffffffffffffffffff021916908373ffffffffffffffffffffffffffffffffffffffff1602179055506003339080600181540180825580915050600190039060005260206000200160009091909190916101000a81548173ffffffffffffffffffffffffffffffffffffffff021916908373ffffffffffffffffffffffffffffffffffffffff1602179055503373ffffffffffffffffffffffffffffffffffffffff167fad6c3cf4f0cd4818bd7ff41caf5520c04d2b229220edb3cbd5ca8b085d6df97b85876040516119d0929190612906565b60405180910390a25050505050565b600160009054906101000a900473ffffffffffffffffffffffffffffffffffffffff1681565b6060600060038054905067ffffffffffffffff811115611a2857611a2761292f565b5b604051908082528060200260200182016040528015611a6157816020015b611a4e611f9e565b815260200190600190039081611a465790505b50905060005b600380549050811015611c4b576006600060038381548110611a8c57611a8b61295e565b5b9060005260206000200160009054906101000a900473ffffffffffffffffffffffffffffffffffffffff1673ffffffffffffffffffffffffffffffffffffffff1673ffffffffffffffffffffffffffffffffffffffff168152602001908152602001600020604051806101000160405290816000820154815260200160018201548152602001600282015481526020016003820154815260200160048201548152602001600582015481526020016006820160009054906101000a900473ffffffffffffffffffffffffffffffffffffffff1673ffffffffffffffffffffffffffffffffffffffff1673ffffffffffffffffffffffffffffffffffffffff16815260200160078201805480602002602001604051908101604052809291908181526020016000905b82821015611c1857838290600052602060002090600502016040518060a00160405290816000820154815260200160018201548152602001600282015481526020016003820154815260200160048201548152505081526020019060010190611bb4565b5050505081525050828281518110611c3357611c3261295e565b5b60200260200101819052508080600101915050611a67565b508091505090565b60008103611c8d576040517f9cf8540c00000000000000000000000000000000000000000000000000000000815260040160405180910390fd5b600260009054906101000a900473ffffffffffffffffffffffffffffffffffffffff1673ffffffffffffffffffffffffffffffffffffffff166323b872dd3330846040518463ffffffff1660e01b8152600401611cec9392919061298d565b6020604051808303816000875af1158015611d0b573d6000803e3d6000fd5b505050506040513d601f19601f82011682018060405250810190611d2f919061282b565b611d6e576040517f08c379a0000000000000000000000000000000000000000000000000000000008152600401611d65906128a4565b60405180910390fd5b80600760003373ffffffffffffffffffffffffffffffffffffffff1673ffffffffffffffffffffffffffffffffffffffff1681526020019081526020016000206000828254611dbd9190612736565b925050819055503373ffffffffffffffffffffffffffffffffffffffff167fe1fffcc4923d04b559f4d29a8bfc6cda04eb5b0d3c460751c2402c5c5cc9109c82604051611e0a91906120e1565b60405180910390a250565b60006001600560008473ffffffffffffffffffffffffffffffffffffffff1673ffffffffffffffffffffffffffffffffffffffff16815260200190815260200160002080549050611e669190612736565b90506000600560008473ffffffffffffffffffffffffffffffffffffffff1673ffffffffffffffffffffffffffffffffffffffff168152602001908152602001600020600181600181540180825580915050039060005260206000209060060201905081816000018190555085816001019081611ee39190612b66565b50848160020181905550838160030181905550428160040181905550828160050160006101000a81548173ffffffffffffffffffffffffffffffffffffffff021916908373ffffffffffffffffffffffffffffffffffffffff1602179055508273ffffffffffffffffffffffffffffffffffffffff167f42af5068a61df09566e93b416f70b2261490706c0aecc10c6e9c8b4a8eb99e3087878742604051611f8e9493929190612c38565b60405180910390a2505050505050565b604051806101000160405280600081526020016000815260200160008152602001600081526020016000815260200160008152602001600073ffffffffffffffffffffffffffffffffffffffff168152602001606081525090565b600080fd5b600073ffffffffffffffffffffffffffffffffffffffff82169050919050565b600061202982611ffe565b9050919050565b6120398161201e565b811461204457600080fd5b50565b60008135905061205681612030565b92915050565b6000819050919050565b61206f8161205c565b811461207a57600080fd5b50565b60008135905061208c81612066565b92915050565b600080604083850312156120a9576120a8611ff9565b5b60006120b785828601612047565b92505060206120c88582860161207d565b9150509250929050565b6120db8161205c565b82525050565b60006020820190506120f660008301846120d2565b92915050565b600081519050919050565b600082825260208201905092915050565b60005b8381101561213657808201518184015260208101905061211b565b60008484015250505050565b6000601f19601f8301169050919050565b600061215e826120fc565b6121688185612107565b9350612178818560208601612118565b61218181612142565b840191505092915050565b6121958161201e565b82525050565b600060c0820190506121b060008301896120d2565b81810360208301526121c28188612153565b90506121d160408301876120d2565b6121de60608301866120d2565b6121eb60808301856120d2565b6121f860a083018461218c565b979650505050505050565b60006020828403121561221957612218611ff9565b5b600061222784828501612047565b91505092915050565b60006020828403121561224657612245611ff9565b5b60006122548482850161207d565b91505092915050565b6000819050919050565b600061228261227d61227884611ffe565b61225d565b611ffe565b9050919050565b600061229482612267565b9050919050565b60006122a682612289565b9050919050565b6122b68161229b565b82525050565b60006020820190506122d160008301846122ad565b92915050565b600060e0820190506122ec600083018a6120d2565b6122f960208301896120d2565b61230660408301886120d2565b61231360608301876120d2565b61232060808301866120d2565b61232d60a08301856120d2565b61233a60c083018461218c565b98975050505050505050565b600080600080608085870312156123605761235f611ff9565b5b600061236e8782880161207d565b945050602061237f8782880161207d565b93505060406123908782880161207d565b92505060606123a18782880161207d565b91505092959194509250565b60006020820190506123c2600083018461218c565b92915050565b600081519050919050565b600082825260208201905092915050565b6000819050602082019050919050565b6123fd8161205c565b82525050565b61240c8161201e565b82525050565b600081519050919050565b600082825260208201905092915050565b6000819050602082019050919050565b60a08201600082015161245460008501826123f4565b50602082015161246760208501826123f4565b50604082015161247a60408501826123f4565b50606082015161248d60608501826123f4565b5060808201516124a060808501826123f4565b50505050565b60006124b2838361243e565b60a08301905092915050565b6000602082019050919050565b60006124d682612412565b6124e0818561241d565b93506124eb8361242e565b8060005b8381101561251c57815161250388826124a6565b975061250e836124be565b9250506001810190506124ef565b5085935050505092915050565b60006101008301600083015161254260008601826123f4565b50602083015161255560208601826123f4565b50604083015161256860408601826123f4565b50606083015161257b60608601826123f4565b50608083015161258e60808601826123f4565b5060a08301516125a160a08601826123f4565b5060c08301516125b460c0860182612403565b5060e083015184820360e08601526125cc82826124cb565b9150508091505092915050565b60006125e58383612529565b905092915050565b6000602082019050919050565b6000612605826123c8565b61260f81856123d3565b935083602082028501612621856123e4565b8060005b8581101561265d578484038952815161263e85826125d9565b9450612649836125ed565b925060208a01995050600181019050612625565b50829750879550505050505092915050565b6000602082019050818103600083015261268981846125fa565b905092915050565b7f4e487b7100000000000000000000000000000000000000000000000000000000600052601160045260246000fd5b60006126cb8261205c565b91506126d68361205c565b92508282026126e48161205c565b915082820484148315176126fb576126fa612691565b5b5092915050565b600061270d8261205c565b91506127188361205c565b92508282039050818111156127305761272f612691565b5b92915050565b60006127418261205c565b915061274c8361205c565b925082820190508082111561276457612763612691565b5b92915050565b600060408201905061277f600083018561218c565b61278c60208301846120d2565b9392505050565b7f4e487b7100000000000000000000000000000000000000000000000000000000600052602260045260246000fd5b600060028204905060018216806127da57607f821691505b6020821081036127ed576127ec612793565b5b50919050565b60008115159050919050565b612808816127f3565b811461281357600080fd5b50565b600081519050612825816127ff565b92915050565b60006020828403121561284157612840611ff9565b5b600061284f84828501612816565b91505092915050565b7f546f6b656e207472616e73666572206661696c65640000000000000000000000600082015250565b600061288e601583612107565b915061289982612858565b602082019050919050565b600060208201905081810360008301526128bd81612881565b9050919050565b6000815190506128d381612066565b92915050565b6000602082840312156128ef576128ee611ff9565b5b60006128fd848285016128c4565b91505092915050565b600060408201905061291b60008301856120d2565b61292860208301846120d2565b9392505050565b7f4e487b7100000000000000000000000000000000000000000000000000000000600052604160045260246000fd5b7f4e487b7100000000000000000000000000000000000000000000000000000000600052603260045260246000fd5b60006060820190506129a2600083018661218c565b6129af602083018561218c565b6129bc60408301846120d2565b949350505050565b60008190508160005260206000209050919050565b60006020601f8301049050919050565b600082821b905092915050565b600060088302612a267fffffffffffffffffffffffffffffffffffffffffffffffffffffffffffffffff826129e9565b612a3086836129e9565b95508019841693508086168417925050509392505050565b6000612a63612a5e612a598461205c565b61225d565b61205c565b9050919050565b6000819050919050565b612a7d83612a48565b612a91612a8982612a6a565b8484546129f6565b825550505050565b600090565b612aa6612a99565b612ab1818484612a74565b505050565b5b81811015612ad557612aca600082612a9e565b600181019050612ab7565b5050565b601f821115612b1a57612aeb816129c4565b612af4846129d9565b81016020851015612b03578190505b612b17612b0f856129d9565b830182612ab6565b50505b505050565b600082821c905092915050565b6000612b3d60001984600802612b1f565b1980831691505092915050565b6000612b568383612b2c565b9150826002028217905092915050565b612b6f826120fc565b67ffffffffffffffff811115612b8857612b8761292f565b5b612b9282546127c2565b612b9d828285612ad9565b600060209050601f831160018114612bd05760008415612bbe578287015190505b612bc88582612b4a565b865550612c30565b601f198416612bde866129c4565b60005b82811015612c0657848901518255600182019150602085019450602081019050612be1565b86831015612c235784890151612c1f601f891682612b2c565b8355505b6001600288020188555050505b505050505050565b60006080820190508181036000830152612c528187612153565b9050612c6160208301866120d2565b612c6e60408301856120d2565b612c7b60608301846120d2565b9594505050505056fea26469706673582212207eb89788ada166a981d7ca8d1a5319f8675eb29720ea94c3285ef40cffcca6c164736f6c63430008180033",
  "linkReferences": {},
  "deployedLinkReferences": {}
}