{
  "_format": "hh-sol-artifact-1",
  "contractName": "Energy",
  "sourceName": "contracts/Energy.sol",
  "abi": [
    {
      "inputs": [
        {
          "internalType": "address",
          "name": "_energyToken",
          "type": "address"
        }
      ],
      "stateMutability": "nonpayable",
      "type": "constructor"
    },
    {
      "inputs": [],
      "name": "AddressZeroDetected",
      "type": "error"
    },
    {
      "inputs": [],
      "name": "CallerNotProducer",
      "type": "error"
    },
    {
      "inputs": [],
      "name": "InsufficientBalance",
      "type": "error"
    },
    {
      "inputs": [],
      "name": "InsufficientBuyerCredits",
      "type": "error"
    },
    {
      "inputs": [],
      "name": "InsufficientTokenBalance",
      "type": "error"
    },
    {
      "inputs": [],
      "name": "NoListingsFound",
      "type": "error"
    },
    {
      "inputs": [],
      "name": "NotEnoughEnergyCredits",
      "type": "error"
    },
    {
      "inputs": [],
      "name": "OnlyOwnerAllowed",
      "type": "error"
    },
    {
      "inputs": [],
      "name": "OnlyProducerAllowed",
      "type": "error"
    },
    {
      "inputs": [],
      "name": "ProducerAlreadyRegistered",
      "type": "error"
    },
    {
      "inputs": [],
      "name": "ReentrancyGuardReentrantCall",
      "type": "error"
    },
    {
      "inputs": [],
      "name": "TransferFailed",
      "type": "error"
    },
    {
      "inputs": [],
      "name": "UpdatedRateIsSame",
      "type": "error"
    },
    {
      "inputs": [],
      "name": "UpdatedpriceIsSame",
      "type": "error"
    },
    {
      "inputs": [],
      "name": "ZeroValueNotAllowed",
      "type": "error"
    },
    {
      "anonymous": false,
      "inputs": [
        {
          "indexed": true,
          "internalType": "address",
          "name": "user",
          "type": "address"
        },
        {
          "indexed": false,
          "internalType": "uint256",
          "name": "amount",
          "type": "uint256"
        }
      ],
      "name": "Deposit",
      "type": "event"
    },
    {
      "anonymous": false,
      "inputs": [
        {
          "indexed": true,
          "internalType": "address",
          "name": "buyer",
          "type": "address"
        },
        {
          "indexed": false,
          "internalType": "address",
          "name": "producer",
          "type": "address"
        },
        {
          "indexed": false,
          "internalType": "uint256",
          "name": "unitAmount",
          "type": "uint256"
        }
      ],
      "name": "EnergyCreditsPurchased",
      "type": "event"
    },
    {
      "anonymous": false,
      "inputs": [
        {
          "indexed": true,
          "internalType": "address",
          "name": "producer",
          "type": "address"
        },
        {
          "indexed": false,
          "internalType": "uint256",
          "name": "units",
          "type": "uint256"
        },
        {
          "indexed": false,
          "internalType": "uint256",
          "name": "rate",
          "type": "uint256"
        }
      ],
      "name": "ListingSuccessful",
      "type": "event"
    },
    {
      "anonymous": false,
      "inputs": [
        {
          "indexed": true,
          "internalType": "address",
          "name": "user",
          "type": "address"
        },
        {
          "indexed": false,
          "internalType": "string",
          "name": "typeOfTx",
          "type": "string"
        },
        {
          "indexed": false,
          "internalType": "uint256",
          "name": "amount",
          "type": "uint256"
        },
        {
          "indexed": false,
          "internalType": "uint256",
          "name": "units",
          "type": "uint256"
        },
        {
          "indexed": false,
          "internalType": "uint256",
          "name": "timestamp",
          "type": "uint256"
        }
      ],
      "name": "MarketActivity",
      "type": "event"
    },
    {
      "anonymous": false,
      "inputs": [
        {
          "indexed": true,
          "internalType": "address",
          "name": "producer",
          "type": "address"
        },
        {
          "indexed": false,
          "internalType": "uint256",
          "name": "pricePerUnit",
          "type": "uint256"
        }
      ],
      "name": "RateUpdated",
      "type": "event"
    },
    {
      "anonymous": false,
      "inputs": [
        {
          "indexed": true,
          "internalType": "address",
          "name": "producer",
          "type": "address"
        },
        {
          "indexed": false,
          "internalType": "uint256",
          "name": "energyCredits",
          "type": "uint256"
        }
      ],
      "name": "UnitsUpdated",
      "type": "event"
    },
    {
      "anonymous": false,
      "inputs": [
        {
          "indexed": true,
          "internalType": "address",
          "name": "producer",
          "type": "address"
        },
        {
          "indexed": false,
          "internalType": "uint256",
          "name": "amount",
          "type": "uint256"
        }
      ],
      "name": "WithdrawalSuccessful",
      "type": "event"
    },
    {
      "inputs": [
        {
          "internalType": "uint256",
          "name": "rate",
          "type": "uint256"
        },
        {
          "internalType": "uint256",
          "name": "units",
          "type": "uint256"
        },
        {
          "internalType": "uint256",
          "name": "minorder",
          "type": "uint256"
        },
        {
          "internalType": "uint256",
          "name": "maxorder",
          "type": "uint256"
        }
      ],
      "name": "addListing",
      "outputs": [],
      "stateMutability": "nonpayable",
      "type": "function"
    },
    {
      "inputs": [
        {
          "internalType": "address",
          "name": "",
          "type": "address"
        }
      ],
      "name": "balances",
      "outputs": [
        {
          "internalType": "uint256",
          "name": "",
          "type": "uint256"
        }
      ],
      "stateMutability": "view",
      "type": "function"
    },
    {
      "inputs": [
        {
          "internalType": "uint256",
          "name": "amount",
          "type": "uint256"
        }
      ],
      "name": "deposit",
      "outputs": [],
      "stateMutability": "nonpayable",
      "type": "function"
    },
    {
      "inputs": [
        {
          "internalType": "address",
          "name": "",
          "type": "address"
        }
      ],
      "name": "depositedBalances",
      "outputs": [
        {
          "internalType": "uint256",
          "name": "",
          "type": "uint256"
        }
      ],
      "stateMutability": "view",
      "type": "function"
    },
    {
      "inputs": [],
      "name": "energyToken",
      "outputs": [
        {
          "internalType": "contract IERC20",
          "name": "",
          "type": "address"
        }
      ],
      "stateMutability": "view",
      "type": "function"
    },
    {
      "inputs": [],
      "name": "getAllListings",
      "outputs": [
        {
          "components": [
            {
              "internalType": "uint256",
              "name": "id",
              "type": "uint256"
            },
            {
              "internalType": "uint256",
              "name": "rate",
              "type": "uint256"
            },
            {
              "internalType": "uint256",
              "name": "units",
              "type": "uint256"
            },
            {
              "internalType": "uint256",
              "name": "minorder",
              "type": "uint256"
            },
            {
              "internalType": "uint256",
              "name": "maxOrder",
              "type": "uint256"
            },
            {
              "internalType": "uint256",
              "name": "timestamp",
              "type": "uint256"
            },
            {
              "internalType": "address",
              "name": "producer",
              "type": "address"
            },
            {
              "components": [
                {
                  "internalType": "uint256",
                  "name": "id",
                  "type": "uint256"
                },
                {
                  "internalType": "uint256",
                  "name": "units",
                  "type": "uint256"
                },
                {
                  "internalType": "uint256",
                  "name": "rate",
                  "type": "uint256"
                },
                {
                  "internalType": "uint256",
                  "name": "amount",
                  "type": "uint256"
                },
                {
                  "internalType": "uint256",
                  "name": "timestamp",
                  "type": "uint256"
                }
              ],
              "internalType": "struct Energy.ListingTransaction[]",
              "name": "transactions",
              "type": "tuple[]"
            }
          ],
          "internalType": "struct Energy.Listing[]",
          "name": "",
          "type": "tuple[]"
        }
      ],
      "stateMutability": "view",
      "type": "function"
    },
    {
      "inputs": [],
      "name": "getBalance",
      "outputs": [
        {
          "internalType": "uint256",
          "name": "",
          "type": "uint256"
        }
      ],
      "stateMutability": "view",
      "type": "function"
    },
    {
      "inputs": [],
      "name": "getContractBalance",
      "outputs": [
        {
          "internalType": "uint256",
          "name": "",
          "type": "uint256"
        }
      ],
      "stateMutability": "view",
      "type": "function"
    },
    {
      "inputs": [],
      "name": "getDepositedBalance",
      "outputs": [
        {
          "internalType": "uint256",
          "name": "",
          "type": "uint256"
        }
      ],
      "stateMutability": "view",
      "type": "function"
    },
    {
      "inputs": [
        {
          "internalType": "address",
          "name": "",
          "type": "address"
        }
      ],
      "name": "listings",
      "outputs": [
        {
          "internalType": "uint256",
          "name": "id",
          "type": "uint256"
        },
        {
          "internalType": "uint256",
          "name": "rate",
          "type": "uint256"
        },
        {
          "internalType": "uint256",
          "name": "units",
          "type": "uint256"
        },
        {
          "internalType": "uint256",
          "name": "minorder",
          "type": "uint256"
        },
        {
          "internalType": "uint256",
          "name": "maxOrder",
          "type": "uint256"
        },
        {
          "internalType": "uint256",
          "name": "timestamp",
          "type": "uint256"
        },
        {
          "internalType": "address",
          "name": "producer",
          "type": "address"
        }
      ],
      "stateMutability": "view",
      "type": "function"
    },
    {
      "inputs": [],
      "name": "owner",
      "outputs": [
        {
          "internalType": "address",
          "name": "",
          "type": "address"
        }
      ],
      "stateMutability": "view",
      "type": "function"
    },
    {
      "inputs": [
        {
          "internalType": "address",
          "name": "producer",
          "type": "address"
        },
        {
          "internalType": "uint256",
          "name": "unitAmount",
          "type": "uint256"
        }
      ],
      "name": "purchaseEnergyCredits",
      "outputs": [],
      "stateMutability": "nonpayable",
      "type": "function"
    },
    {
      "inputs": [
        {
          "internalType": "address",
          "name": "",
          "type": "address"
        },
        {
          "internalType": "uint256",
          "name": "",
          "type": "uint256"
        }
      ],
      "name": "transactions",
      "outputs": [
        {
          "internalType": "uint256",
          "name": "id",
          "type": "uint256"
        },
        {
          "internalType": "string",
          "name": "typeOfTx",
          "type": "string"
        },
        {
          "internalType": "uint256",
          "name": "amount",
          "type": "uint256"
        },
        {
          "internalType": "uint256",
          "name": "units",
          "type": "uint256"
        },
        {
          "internalType": "uint256",
          "name": "timestamp",
          "type": "uint256"
        },
        {
          "internalType": "address",
          "name": "user",
          "type": "address"
        }
      ],
      "stateMutability": "view",
      "type": "function"
    },
    {
      "inputs": [
        {
          "internalType": "uint256",
          "name": "_newCredits",
          "type": "uint256"
        }
      ],
      "name": "updateEnergyCredits",
      "outputs": [],
      "stateMutability": "nonpayable",
      "type": "function"
    },
    {
      "inputs": [
        {
          "internalType": "uint256",
          "name": "_newRate",
          "type": "uint256"
        }
      ],
      "name": "updateRate",
      "outputs": [],
      "stateMutability": "nonpayable",
      "type": "function"
    },
    {
      "inputs": [
        {
          "internalType": "uint256",
          "name": "amount",
          "type": "uint256"
        }
      ],
      "name": "withdraw",
      "outputs": [],
      "stateMutability": "nonpayable",
      "type": "function"
    }
  ],
  "bytecode": "0x60806040523480156200001157600080fd5b5060405162002fbe38038062002fbe833981810160405281019062000037919062000132565b600160008190555033600160006101000a81548173ffffffffffffffffffffffffffffffffffffffff021916908373ffffffffffffffffffffffffffffffffffffffff16021790555080600260006101000a81548173ffffffffffffffffffffffffffffffffffffffff021916908373ffffffffffffffffffffffffffffffffffffffff1602179055505062000164565b600080fd5b600073ffffffffffffffffffffffffffffffffffffffff82169050919050565b6000620000fa82620000cd565b9050919050565b6200010c81620000ed565b81146200011857600080fd5b50565b6000815190506200012c8162000101565b92915050565b6000602082840312156200014b576200014a620000c8565b5b60006200015b848285016200011b565b91505092915050565b612e4a80620001746000396000f3fe608060405234801561001057600080fd5b50600436106101005760003560e01c806365d96c82116100975780638145037f116100665780638145037f146102b85780638da5cb5b146102d4578063ae73ccec146102f2578063b6b55f251461031057610100565b806365d96c821461021857806369ea17711461024e5780636f9fb98a1461026a5780637d9953111461028857610100565b80632e1a7d4d116100d35780632e1a7d4d146101a4578063462f4fc2146101c05780634ec7fb81146101de57806362a2b7cf146101fc57610100565b80630935e7dc1461010557806312065fe014610121578063145381281461013f57806327e235e314610174575b600080fd5b61011f600480360381019061011a9190612222565b61032c565b005b61012961080e565b6040516101369190612271565b60405180910390f35b61015960048036038101906101549190612222565b61091c565b60405161016b9695949392919061232b565b60405180910390f35b61018e60048036038101906101899190612393565b610a1d565b60405161019b9190612271565b60405180910390f35b6101be60048036038101906101b991906123c0565b610a35565b005b6101c8610d65565b6040516101d59190612271565b60405180910390f35b6101e6610dac565b6040516101f3919061244c565b60405180910390f35b610216600480360381019061021191906123c0565b610dd2565b005b610232600480360381019061022d9190612393565b611128565b6040516102459796959493929190612467565b60405180910390f35b610268600480360381019061026391906123c0565b61118a565b005b6102726114e0565b60405161027f9190612271565b60405180910390f35b6102a2600480360381019061029d9190612393565b61160a565b6040516102af9190612271565b60405180910390f35b6102d260048036038101906102cd91906124d6565b611622565b005b6102dc611aa7565b6040516102e9919061253d565b60405180910390f35b6102fa611acd565b60405161030791906127ff565b60405180910390f35b61032a600480360381019061032591906123c0565b611de3565b005b600073ffffffffffffffffffffffffffffffffffffffff163373ffffffffffffffffffffffffffffffffffffffff1603610392576040517f287170f900000000000000000000000000000000000000000000000000000000815260040160405180910390fd5b600073ffffffffffffffffffffffffffffffffffffffff168273ffffffffffffffffffffffffffffffffffffffff16036103f8576040517f287170f900000000000000000000000000000000000000000000000000000000815260040160405180910390fd5b60008103610432576040517f9cf8540c00000000000000000000000000000000000000000000000000000000815260040160405180910390fd5b6000600660008473ffffffffffffffffffffffffffffffffffffffff1673ffffffffffffffffffffffffffffffffffffffff1681526020019081526020016000209050600073ffffffffffffffffffffffffffffffffffffffff168160060160009054906101000a900473ffffffffffffffffffffffffffffffffffffffff1673ffffffffffffffffffffffffffffffffffffffff16036104ff576040517f994c19f200000000000000000000000000000000000000000000000000000000815260040160405180910390fd5b818160020154101561053d576040517f23fc123c00000000000000000000000000000000000000000000000000000000815260040160405180910390fd5b600081600101548361054f9190612850565b905080600760003373ffffffffffffffffffffffffffffffffffffffff1673ffffffffffffffffffffffffffffffffffffffff1681526020019081526020016000205410156105ca576040517fe4455cae00000000000000000000000000000000000000000000000000000000815260040160405180910390fd5b80600760003373ffffffffffffffffffffffffffffffffffffffff1673ffffffffffffffffffffffffffffffffffffffff16815260200190815260200160002060008282546106199190612892565b9250508190555080600460008673ffffffffffffffffffffffffffffffffffffffff1673ffffffffffffffffffffffffffffffffffffffff168152602001908152602001600020600082825461066f91906128c6565b925050819055508282600201600082825461068a9190612892565b925050819055506000600183600701805490506106a791906128c6565b9050826007016040518060a0016040528083815260200186815260200185600101548152602001848152602001428152509080600181540180825580915050600190039060005260206000209060050201600090919091909150600082015181600001556020820151816001015560408201518160020155606082015181600301556080820151816004015550506107766040518060400160405280600881526020017f5075726368617365000000000000000000000000000000000000000000000000815250838633611fa5565b6107b76040518060400160405280600481526020017f536f6c6400000000000000000000000000000000000000000000000000000000815250838688611fa5565b3373ffffffffffffffffffffffffffffffffffffffff167f718ea2b924abd563212f61f1942c1abd50d26d266f0d5fbba7c67c157706f34686866040516107ff9291906128fa565b60405180910390a25050505050565b60008073ffffffffffffffffffffffffffffffffffffffff16600660003373ffffffffffffffffffffffffffffffffffffffff1673ffffffffffffffffffffffffffffffffffffffff16815260200190815260200160002060060160009054906101000a900473ffffffffffffffffffffffffffffffffffffffff1673ffffffffffffffffffffffffffffffffffffffff16036108d7576040517f6145020a00000000000000000000000000000000000000000000000000000000815260040160405180910390fd5b600460003373ffffffffffffffffffffffffffffffffffffffff1673ffffffffffffffffffffffffffffffffffffffff16815260200190815260200160002054905090565b6005602052816000526040600020818154811061093857600080fd5b90600052602060002090600602016000915091505080600001549080600101805461096290612952565b80601f016020809104026020016040519081016040528092919081815260200182805461098e90612952565b80156109db5780601f106109b0576101008083540402835291602001916109db565b820191906000526020600020905b8154815290600101906020018083116109be57829003601f168201915b5050505050908060020154908060030154908060040154908060050160009054906101000a900473ffffffffffffffffffffffffffffffffffffffff16905086565b60046020528060005260406000206000915090505481565b600073ffffffffffffffffffffffffffffffffffffffff16600660003373ffffffffffffffffffffffffffffffffffffffff1673ffffffffffffffffffffffffffffffffffffffff16815260200190815260200160002060060160009054906101000a900473ffffffffffffffffffffffffffffffffffffffff1673ffffffffffffffffffffffffffffffffffffffff1603610afd576040517f6145020a00000000000000000000000000000000000000000000000000000000815260040160405180910390fd5b600073ffffffffffffffffffffffffffffffffffffffff163373ffffffffffffffffffffffffffffffffffffffff1603610b63576040517f287170f900000000000000000000000000000000000000000000000000000000815260040160405180910390fd5b60008103610b9d576040517f9cf8540c00000000000000000000000000000000000000000000000000000000815260040160405180910390fd5b80600760003373ffffffffffffffffffffffffffffffffffffffff1673ffffffffffffffffffffffffffffffffffffffff1681526020019081526020016000206000828254610bec9190612892565b92505081905550600260009054906101000a900473ffffffffffffffffffffffffffffffffffffffff1673ffffffffffffffffffffffffffffffffffffffff1663a9059cbb33836040518363ffffffff1660e01b8152600401610c509291906128fa565b6020604051808303816000875af1158015610c6f573d6000803e3d6000fd5b505050506040513d601f19601f82011682018060405250810190610c9391906129bb565b610cd2576040517f08c379a0000000000000000000000000000000000000000000000000000000008152600401610cc990612a34565b60405180910390fd5b610d146040518060400160405280600a81526020017f5769746864726177616c0000000000000000000000000000000000000000000081525082600033611fa5565b3373ffffffffffffffffffffffffffffffffffffffff167ff4f855c53853d0277a9ff688aadbfe4cb795ca1d5af41704b62cb539f89939ec82604051610d5a9190612271565b60405180910390a250565b6000600760003373ffffffffffffffffffffffffffffffffffffffff1673ffffffffffffffffffffffffffffffffffffffff16815260200190815260200160002054905090565b600260009054906101000a900473ffffffffffffffffffffffffffffffffffffffff1681565b600073ffffffffffffffffffffffffffffffffffffffff16600660003373ffffffffffffffffffffffffffffffffffffffff1673ffffffffffffffffffffffffffffffffffffffff16815260200190815260200160002060060160009054906101000a900473ffffffffffffffffffffffffffffffffffffffff1673ffffffffffffffffffffffffffffffffffffffff1603610e9a576040517f6145020a00000000000000000000000000000000000000000000000000000000815260040160405180910390fd5b6000600660003373ffffffffffffffffffffffffffffffffffffffff1673ffffffffffffffffffffffffffffffffffffffff1681526020019081526020016000209050600073ffffffffffffffffffffffffffffffffffffffff163373ffffffffffffffffffffffffffffffffffffffff1603610f43576040517f287170f900000000000000000000000000000000000000000000000000000000815260040160405180910390fd5b600073ffffffffffffffffffffffffffffffffffffffff168160060160009054906101000a900473ffffffffffffffffffffffffffffffffffffffff1673ffffffffffffffffffffffffffffffffffffffff1603610fcd576040517f994c19f200000000000000000000000000000000000000000000000000000000815260040160405180910390fd5b3373ffffffffffffffffffffffffffffffffffffffff168160060160009054906101000a900473ffffffffffffffffffffffffffffffffffffffff1673ffffffffffffffffffffffffffffffffffffffff1614611056576040517fa93c36ae00000000000000000000000000000000000000000000000000000000815260040160405180910390fd5b81816002015403611093576040517f18b048f300000000000000000000000000000000000000000000000000000000815260040160405180910390fd5b600082036110cd576040517f9cf8540c00000000000000000000000000000000000000000000000000000000815260040160405180910390fd5b8181600201819055503373ffffffffffffffffffffffffffffffffffffffff167f873d3ad8530cf7f4b0f345bed21dd0978146051a43f99945c7ebbfa87ab62e588360405161111c9190612271565b60405180910390a25050565b60066020528060005260406000206000915090508060000154908060010154908060020154908060030154908060040154908060050154908060060160009054906101000a900473ffffffffffffffffffffffffffffffffffffffff16905087565b600073ffffffffffffffffffffffffffffffffffffffff16600660003373ffffffffffffffffffffffffffffffffffffffff1673ffffffffffffffffffffffffffffffffffffffff16815260200190815260200160002060060160009054906101000a900473ffffffffffffffffffffffffffffffffffffffff1673ffffffffffffffffffffffffffffffffffffffff1603611252576040517f6145020a00000000000000000000000000000000000000000000000000000000815260040160405180910390fd5b6000600660003373ffffffffffffffffffffffffffffffffffffffff1673ffffffffffffffffffffffffffffffffffffffff1681526020019081526020016000209050600073ffffffffffffffffffffffffffffffffffffffff163373ffffffffffffffffffffffffffffffffffffffff16036112fb576040517f287170f900000000000000000000000000000000000000000000000000000000815260040160405180910390fd5b600073ffffffffffffffffffffffffffffffffffffffff168160060160009054906101000a900473ffffffffffffffffffffffffffffffffffffffff1673ffffffffffffffffffffffffffffffffffffffff1603611385576040517f994c19f200000000000000000000000000000000000000000000000000000000815260040160405180910390fd5b3373ffffffffffffffffffffffffffffffffffffffff168160060160009054906101000a900473ffffffffffffffffffffffffffffffffffffffff1673ffffffffffffffffffffffffffffffffffffffff161461140e576040517fa93c36ae00000000000000000000000000000000000000000000000000000000815260040160405180910390fd5b8181600101540361144b576040517f4aa02f9600000000000000000000000000000000000000000000000000000000815260040160405180910390fd5b60008203611485576040517f9cf8540c00000000000000000000000000000000000000000000000000000000815260040160405180910390fd5b8181600101819055503373ffffffffffffffffffffffffffffffffffffffff167f492de3ddd6d733b461680f630083e98c567b860343e3f9ac763ee61d7c57b548836040516114d49190612271565b60405180910390a25050565b6000600160009054906101000a900473ffffffffffffffffffffffffffffffffffffffff1673ffffffffffffffffffffffffffffffffffffffff163373ffffffffffffffffffffffffffffffffffffffff1614611569576040517f717bf7f800000000000000000000000000000000000000000000000000000000815260040160405180910390fd5b600260009054906101000a900473ffffffffffffffffffffffffffffffffffffffff1673ffffffffffffffffffffffffffffffffffffffff166370a08231306040518263ffffffff1660e01b81526004016115c4919061253d565b602060405180830381865afa1580156115e1573d6000803e3d6000fd5b505050506040513d601f19601f820116820180604052508101906116059190612a69565b905090565b60076020528060005260406000206000915090505481565b600073ffffffffffffffffffffffffffffffffffffffff163373ffffffffffffffffffffffffffffffffffffffff1603611688576040517f287170f900000000000000000000000000000000000000000000000000000000815260040160405180910390fd5b60008414806116975750600083145b806116a25750600082145b806116ad5750600081145b156116e4576040517f9cf8540c00000000000000000000000000000000000000000000000000000000815260040160405180910390fd5b600073ffffffffffffffffffffffffffffffffffffffff16600660003373ffffffffffffffffffffffffffffffffffffffff1673ffffffffffffffffffffffffffffffffffffffff16815260200190815260200160002060060160009054906101000a900473ffffffffffffffffffffffffffffffffffffffff1673ffffffffffffffffffffffffffffffffffffffff16146117ac576040517f7b00c82400000000000000000000000000000000000000000000000000000000815260040160405180910390fd5b600060016003805490506117c091906128c6565b905080600660003373ffffffffffffffffffffffffffffffffffffffff1673ffffffffffffffffffffffffffffffffffffffff1681526020019081526020016000206000018190555084600660003373ffffffffffffffffffffffffffffffffffffffff1673ffffffffffffffffffffffffffffffffffffffff1681526020019081526020016000206001018190555083600660003373ffffffffffffffffffffffffffffffffffffffff1673ffffffffffffffffffffffffffffffffffffffff1681526020019081526020016000206002018190555082600660003373ffffffffffffffffffffffffffffffffffffffff1673ffffffffffffffffffffffffffffffffffffffff1681526020019081526020016000206003018190555081600660003373ffffffffffffffffffffffffffffffffffffffff1673ffffffffffffffffffffffffffffffffffffffff1681526020019081526020016000206004018190555042600660003373ffffffffffffffffffffffffffffffffffffffff1673ffffffffffffffffffffffffffffffffffffffff1681526020019081526020016000206005018190555033600660003373ffffffffffffffffffffffffffffffffffffffff1673ffffffffffffffffffffffffffffffffffffffff16815260200190815260200160002060060160006101000a81548173ffffffffffffffffffffffffffffffffffffffff021916908373ffffffffffffffffffffffffffffffffffffffff1602179055506003339080600181540180825580915050600190039060005260206000200160009091909190916101000a81548173ffffffffffffffffffffffffffffffffffffffff021916908373ffffffffffffffffffffffffffffffffffffffff1602179055503373ffffffffffffffffffffffffffffffffffffffff167fad6c3cf4f0cd4818bd7ff41caf5520c04d2b229220edb3cbd5ca8b085d6df97b8587604051611a98929190612a96565b60405180910390a25050505050565b600160009054906101000a900473ffffffffffffffffffffffffffffffffffffffff1681565b6060600073ffffffffffffffffffffffffffffffffffffffff16600660003373ffffffffffffffffffffffffffffffffffffffff1673ffffffffffffffffffffffffffffffffffffffff16815260200190815260200160002060060160009054906101000a900473ffffffffffffffffffffffffffffffffffffffff1673ffffffffffffffffffffffffffffffffffffffff1603611b97576040517f6145020a00000000000000000000000000000000000000000000000000000000815260040160405180910390fd5b600060038054905067ffffffffffffffff811115611bb857611bb7612abf565b5b604051908082528060200260200182016040528015611bf157816020015b611bde61212e565b815260200190600190039081611bd65790505b50905060005b600380549050811015611ddb576006600060038381548110611c1c57611c1b612aee565b5b9060005260206000200160009054906101000a900473ffffffffffffffffffffffffffffffffffffffff1673ffffffffffffffffffffffffffffffffffffffff1673ffffffffffffffffffffffffffffffffffffffff168152602001908152602001600020604051806101000160405290816000820154815260200160018201548152602001600282015481526020016003820154815260200160048201548152602001600582015481526020016006820160009054906101000a900473ffffffffffffffffffffffffffffffffffffffff1673ffffffffffffffffffffffffffffffffffffffff1673ffffffffffffffffffffffffffffffffffffffff16815260200160078201805480602002602001604051908101604052809291908181526020016000905b82821015611da857838290600052602060002090600502016040518060a00160405290816000820154815260200160018201548152602001600282015481526020016003820154815260200160048201548152505081526020019060010190611d44565b5050505081525050828281518110611dc357611dc2612aee565b5b60200260200101819052508080600101915050611bf7565b508091505090565b60008103611e1d576040517f9cf8540c00000000000000000000000000000000000000000000000000000000815260040160405180910390fd5b600260009054906101000a900473ffffffffffffffffffffffffffffffffffffffff1673ffffffffffffffffffffffffffffffffffffffff166323b872dd3330846040518463ffffffff1660e01b8152600401611e7c93929190612b1d565b6020604051808303816000875af1158015611e9b573d6000803e3d6000fd5b505050506040513d601f19601f82011682018060405250810190611ebf91906129bb565b611efe576040517f08c379a0000000000000000000000000000000000000000000000000000000008152600401611ef590612a34565b60405180910390fd5b80600760003373ffffffffffffffffffffffffffffffffffffffff1673ffffffffffffffffffffffffffffffffffffffff1681526020019081526020016000206000828254611f4d91906128c6565b925050819055503373ffffffffffffffffffffffffffffffffffffffff167fe1fffcc4923d04b559f4d29a8bfc6cda04eb5b0d3c460751c2402c5c5cc9109c82604051611f9a9190612271565b60405180910390a250565b60006001600560008473ffffffffffffffffffffffffffffffffffffffff1673ffffffffffffffffffffffffffffffffffffffff16815260200190815260200160002080549050611ff691906128c6565b90506000600560008473ffffffffffffffffffffffffffffffffffffffff1673ffffffffffffffffffffffffffffffffffffffff1681526020019081526020016000206001816001815401808255809150500390600052602060002090600602019050818160000181905550858160010190816120739190612cf6565b50848160020181905550838160030181905550428160040181905550828160050160006101000a81548173ffffffffffffffffffffffffffffffffffffffff021916908373ffffffffffffffffffffffffffffffffffffffff1602179055508273ffffffffffffffffffffffffffffffffffffffff167f42af5068a61df09566e93b416f70b2261490706c0aecc10c6e9c8b4a8eb99e308787874260405161211e9493929190612dc8565b60405180910390a2505050505050565b604051806101000160405280600081526020016000815260200160008152602001600081526020016000815260200160008152602001600073ffffffffffffffffffffffffffffffffffffffff168152602001606081525090565b600080fd5b600073ffffffffffffffffffffffffffffffffffffffff82169050919050565b60006121b98261218e565b9050919050565b6121c9816121ae565b81146121d457600080fd5b50565b6000813590506121e6816121c0565b92915050565b6000819050919050565b6121ff816121ec565b811461220a57600080fd5b50565b60008135905061221c816121f6565b92915050565b6000806040838503121561223957612238612189565b5b6000612247858286016121d7565b92505060206122588582860161220d565b9150509250929050565b61226b816121ec565b82525050565b60006020820190506122866000830184612262565b92915050565b600081519050919050565b600082825260208201905092915050565b60005b838110156122c65780820151818401526020810190506122ab565b60008484015250505050565b6000601f19601f8301169050919050565b60006122ee8261228c565b6122f88185612297565b93506123088185602086016122a8565b612311816122d2565b840191505092915050565b612325816121ae565b82525050565b600060c0820190506123406000830189612262565b818103602083015261235281886122e3565b90506123616040830187612262565b61236e6060830186612262565b61237b6080830185612262565b61238860a083018461231c565b979650505050505050565b6000602082840312156123a9576123a8612189565b5b60006123b7848285016121d7565b91505092915050565b6000602082840312156123d6576123d5612189565b5b60006123e48482850161220d565b91505092915050565b6000819050919050565b600061241261240d6124088461218e565b6123ed565b61218e565b9050919050565b6000612424826123f7565b9050919050565b600061243682612419565b9050919050565b6124468161242b565b82525050565b6000602082019050612461600083018461243d565b92915050565b600060e08201905061247c600083018a612262565b6124896020830189612262565b6124966040830188612262565b6124a36060830187612262565b6124b06080830186612262565b6124bd60a0830185612262565b6124ca60c083018461231c565b98975050505050505050565b600080600080608085870312156124f0576124ef612189565b5b60006124fe8782880161220d565b945050602061250f8782880161220d565b93505060406125208782880161220d565b92505060606125318782880161220d565b91505092959194509250565b6000602082019050612552600083018461231c565b92915050565b600081519050919050565b600082825260208201905092915050565b6000819050602082019050919050565b61258d816121ec565b82525050565b61259c816121ae565b82525050565b600081519050919050565b600082825260208201905092915050565b6000819050602082019050919050565b60a0820160008201516125e46000850182612584565b5060208201516125f76020850182612584565b50604082015161260a6040850182612584565b50606082015161261d6060850182612584565b5060808201516126306080850182612584565b50505050565b600061264283836125ce565b60a08301905092915050565b6000602082019050919050565b6000612666826125a2565b61267081856125ad565b935061267b836125be565b8060005b838110156126ac5781516126938882612636565b975061269e8361264e565b92505060018101905061267f565b5085935050505092915050565b6000610100830160008301516126d26000860182612584565b5060208301516126e56020860182612584565b5060408301516126f86040860182612584565b50606083015161270b6060860182612584565b50608083015161271e6080860182612584565b5060a083015161273160a0860182612584565b5060c083015161274460c0860182612593565b5060e083015184820360e086015261275c828261265b565b9150508091505092915050565b600061277583836126b9565b905092915050565b6000602082019050919050565b600061279582612558565b61279f8185612563565b9350836020820285016127b185612574565b8060005b858110156127ed57848403895281516127ce8582612769565b94506127d98361277d565b925060208a019950506001810190506127b5565b50829750879550505050505092915050565b60006020820190508181036000830152612819818461278a565b905092915050565b7f4e487b7100000000000000000000000000000000000000000000000000000000600052601160045260246000fd5b600061285b826121ec565b9150612866836121ec565b9250828202612874816121ec565b9150828204841483151761288b5761288a612821565b5b5092915050565b600061289d826121ec565b91506128a8836121ec565b92508282039050818111156128c0576128bf612821565b5b92915050565b60006128d1826121ec565b91506128dc836121ec565b92508282019050808211156128f4576128f3612821565b5b92915050565b600060408201905061290f600083018561231c565b61291c6020830184612262565b9392505050565b7f4e487b7100000000000000000000000000000000000000000000000000000000600052602260045260246000fd5b6000600282049050600182168061296a57607f821691505b60208210810361297d5761297c612923565b5b50919050565b60008115159050919050565b61299881612983565b81146129a357600080fd5b50565b6000815190506129b58161298f565b92915050565b6000602082840312156129d1576129d0612189565b5b60006129df848285016129a6565b91505092915050565b7f546f6b656e207472616e73666572206661696c65640000000000000000000000600082015250565b6000612a1e601583612297565b9150612a29826129e8565b602082019050919050565b60006020820190508181036000830152612a4d81612a11565b9050919050565b600081519050612a63816121f6565b92915050565b600060208284031215612a7f57612a7e612189565b5b6000612a8d84828501612a54565b91505092915050565b6000604082019050612aab6000830185612262565b612ab86020830184612262565b9392505050565b7f4e487b7100000000000000000000000000000000000000000000000000000000600052604160045260246000fd5b7f4e487b7100000000000000000000000000000000000000000000000000000000600052603260045260246000fd5b6000606082019050612b32600083018661231c565b612b3f602083018561231c565b612b4c6040830184612262565b949350505050565b60008190508160005260206000209050919050565b60006020601f8301049050919050565b600082821b905092915050565b600060088302612bb67fffffffffffffffffffffffffffffffffffffffffffffffffffffffffffffffff82612b79565b612bc08683612b79565b95508019841693508086168417925050509392505050565b6000612bf3612bee612be9846121ec565b6123ed565b6121ec565b9050919050565b6000819050919050565b612c0d83612bd8565b612c21612c1982612bfa565b848454612b86565b825550505050565b600090565b612c36612c29565b612c41818484612c04565b505050565b5b81811015612c6557612c5a600082612c2e565b600181019050612c47565b5050565b601f821115612caa57612c7b81612b54565b612c8484612b69565b81016020851015612c93578190505b612ca7612c9f85612b69565b830182612c46565b50505b505050565b600082821c905092915050565b6000612ccd60001984600802612caf565b1980831691505092915050565b6000612ce68383612cbc565b9150826002028217905092915050565b612cff8261228c565b67ffffffffffffffff811115612d1857612d17612abf565b5b612d228254612952565b612d2d828285612c69565b600060209050601f831160018114612d605760008415612d4e578287015190505b612d588582612cda565b865550612dc0565b601f198416612d6e86612b54565b60005b82811015612d9657848901518255600182019150602085019450602081019050612d71565b86831015612db35784890151612daf601f891682612cbc565b8355505b6001600288020188555050505b505050505050565b60006080820190508181036000830152612de281876122e3565b9050612df16020830186612262565b612dfe6040830185612262565b612e0b6060830184612262565b9594505050505056fea2646970667358221220e7beb07cc0c644fb850538a0db75ad3b00c010fa94f776c44aee21a11487e68d64736f6c63430008180033",
  "linkReferences": {},
  "deployedLinkReferences": {}
}