{
  "_format": "hh-sol-artifact-1",
  "contractName": "Energy",
  "sourceName": "contracts/Energy.sol",
  "abi": [
    {
      "inputs": [
        {
          "internalType": "address",
          "name": "_energyToken",
          "type": "address"
        }
      ],
      "stateMutability": "nonpayable",
      "type": "constructor"
    },
    {
      "inputs": [],
      "name": "AddressZeroDetected",
      "type": "error"
    },
    {
      "inputs": [],
      "name": "CallerNotProducer",
      "type": "error"
    },
    {
      "inputs": [],
      "name": "InsufficientBalance",
      "type": "error"
    },
    {
      "inputs": [],
      "name": "InsufficientBuyerCredits",
      "type": "error"
    },
    {
      "inputs": [],
      "name": "InsufficientTokenBalance",
      "type": "error"
    },
    {
      "inputs": [],
      "name": "NotEnoughEnergyCredits",
      "type": "error"
    },
    {
      "inputs": [],
      "name": "OnlyOwnerAllowed",
      "type": "error"
    },
    {
      "inputs": [],
      "name": "OnlyProducerAllowed",
      "type": "error"
    },
    {
      "inputs": [],
      "name": "ProducerAlreadyRegistered",
      "type": "error"
    },
    {
      "inputs": [],
      "name": "TransferFailed",
      "type": "error"
    },
    {
      "inputs": [],
      "name": "UpdatedpriceIsSame",
      "type": "error"
    },
    {
      "inputs": [],
      "name": "ZeroValueNotAllowed",
      "type": "error"
    },
    {
      "anonymous": false,
      "inputs": [
        {
          "indexed": false,
          "internalType": "address",
          "name": "buyer",
          "type": "address"
        },
        {
          "indexed": false,
          "internalType": "address",
          "name": "producer",
          "type": "address"
        },
        {
          "indexed": false,
          "internalType": "uint256",
          "name": "creditAmount",
          "type": "uint256"
        }
      ],
      "name": "EnergyCreditsPurchased",
      "type": "event"
    },
    {
      "anonymous": false,
      "inputs": [
        {
          "indexed": false,
          "internalType": "address",
          "name": "from",
          "type": "address"
        },
        {
          "indexed": false,
          "internalType": "address",
          "name": "to",
          "type": "address"
        },
        {
          "indexed": false,
          "internalType": "uint256",
          "name": "creditAmount",
          "type": "uint256"
        }
      ],
      "name": "EnergyCreditsTransferred",
      "type": "event"
    },
    {
      "anonymous": false,
      "inputs": [
        {
          "indexed": false,
          "internalType": "address",
          "name": "buyer",
          "type": "address"
        },
        {
          "indexed": false,
          "internalType": "uint256",
          "name": "usageAmount",
          "type": "uint256"
        }
      ],
      "name": "EnergyUsageTracked",
      "type": "event"
    },
    {
      "anonymous": false,
      "inputs": [
        {
          "indexed": false,
          "internalType": "address",
          "name": "producer",
          "type": "address"
        },
        {
          "indexed": false,
          "internalType": "uint256",
          "name": "pricePerUnit",
          "type": "uint256"
        }
      ],
      "name": "PriceUpdated",
      "type": "event"
    },
    {
      "anonymous": false,
      "inputs": [
        {
          "indexed": false,
          "internalType": "address",
          "name": "producer",
          "type": "address"
        },
        {
          "indexed": false,
          "internalType": "uint256",
          "name": "energyCredits",
          "type": "uint256"
        },
        {
          "indexed": false,
          "internalType": "uint256",
          "name": "pricePerUnit",
          "type": "uint256"
        }
      ],
      "name": "ProducerRegistered",
      "type": "event"
    },
    {
      "anonymous": false,
      "inputs": [
        {
          "indexed": false,
          "internalType": "address",
          "name": "producer",
          "type": "address"
        },
        {
          "indexed": false,
          "internalType": "uint256",
          "name": "amount",
          "type": "uint256"
        }
      ],
      "name": "ProducerWithdrawal",
      "type": "event"
    },
    {
      "anonymous": false,
      "inputs": [
        {
          "indexed": false,
          "internalType": "address",
          "name": "producer",
          "type": "address"
        },
        {
          "indexed": false,
          "internalType": "uint256",
          "name": "energyCredits",
          "type": "uint256"
        }
      ],
      "name": "UnitsUpdated",
      "type": "event"
    },
    {
      "inputs": [
        {
          "internalType": "address",
          "name": "",
          "type": "address"
        }
      ],
      "name": "balances",
      "outputs": [
        {
          "internalType": "uint256",
          "name": "",
          "type": "uint256"
        }
      ],
      "stateMutability": "view",
      "type": "function"
    },
    {
      "inputs": [
        {
          "internalType": "address",
          "name": "",
          "type": "address"
        },
        {
          "internalType": "address",
          "name": "",
          "type": "address"
        }
      ],
      "name": "buyerCredits",
      "outputs": [
        {
          "internalType": "uint256",
          "name": "",
          "type": "uint256"
        }
      ],
      "stateMutability": "view",
      "type": "function"
    },
    {
      "inputs": [
        {
          "internalType": "address",
          "name": "producer",
          "type": "address"
        },
        {
          "internalType": "address",
          "name": "buyer",
          "type": "address"
        }
      ],
      "name": "creditBalanceOf",
      "outputs": [
        {
          "internalType": "uint256",
          "name": "",
          "type": "uint256"
        }
      ],
      "stateMutability": "view",
      "type": "function"
    },
    {
      "inputs": [],
      "name": "energyToken",
      "outputs": [
        {
          "internalType": "address",
          "name": "",
          "type": "address"
        }
      ],
      "stateMutability": "view",
      "type": "function"
    },
    {
      "inputs": [
        {
          "internalType": "address",
          "name": "",
          "type": "address"
        }
      ],
      "name": "energyUsage",
      "outputs": [
        {
          "internalType": "uint256",
          "name": "",
          "type": "uint256"
        }
      ],
      "stateMutability": "view",
      "type": "function"
    },
    {
      "inputs": [],
      "name": "getAllProducers",
      "outputs": [
        {
          "components": [
            {
              "internalType": "address",
              "name": "producerAddress",
              "type": "address"
            },
            {
              "internalType": "uint256",
              "name": "energyCredits",
              "type": "uint256"
            },
            {
              "internalType": "uint256",
              "name": "pricePerUnit",
              "type": "uint256"
            },
            {
              "internalType": "uint256",
              "name": "tokenBalance",
              "type": "uint256"
            }
          ],
          "internalType": "struct Energy.Producer[]",
          "name": "",
          "type": "tuple[]"
        }
      ],
      "stateMutability": "view",
      "type": "function"
    },
    {
      "inputs": [],
      "name": "getBalance",
      "outputs": [
        {
          "internalType": "uint256",
          "name": "",
          "type": "uint256"
        }
      ],
      "stateMutability": "view",
      "type": "function"
    },
    {
      "inputs": [],
      "name": "getContractBalance",
      "outputs": [
        {
          "internalType": "uint256",
          "name": "",
          "type": "uint256"
        }
      ],
      "stateMutability": "view",
      "type": "function"
    },
    {
      "inputs": [
        {
          "internalType": "address",
          "name": "",
          "type": "address"
        }
      ],
      "name": "isUserProducer",
      "outputs": [
        {
          "internalType": "bool",
          "name": "",
          "type": "bool"
        }
      ],
      "stateMutability": "view",
      "type": "function"
    },
    {
      "inputs": [],
      "name": "owner",
      "outputs": [
        {
          "internalType": "address",
          "name": "",
          "type": "address"
        }
      ],
      "stateMutability": "view",
      "type": "function"
    },
    {
      "inputs": [
        {
          "internalType": "address",
          "name": "",
          "type": "address"
        }
      ],
      "name": "producers",
      "outputs": [
        {
          "internalType": "address",
          "name": "producerAddress",
          "type": "address"
        },
        {
          "internalType": "uint256",
          "name": "energyCredits",
          "type": "uint256"
        },
        {
          "internalType": "uint256",
          "name": "pricePerUnit",
          "type": "uint256"
        },
        {
          "internalType": "uint256",
          "name": "tokenBalance",
          "type": "uint256"
        }
      ],
      "stateMutability": "view",
      "type": "function"
    },
    {
      "inputs": [
        {
          "internalType": "address",
          "name": "producer",
          "type": "address"
        },
        {
          "internalType": "uint256",
          "name": "creditAmount",
          "type": "uint256"
        }
      ],
      "name": "purchaseEnergyCredits",
      "outputs": [],
      "stateMutability": "nonpayable",
      "type": "function"
    },
    {
      "inputs": [
        {
          "internalType": "uint256",
          "name": "_energyCredits",
          "type": "uint256"
        },
        {
          "internalType": "uint256",
          "name": "_pricePerUnit",
          "type": "uint256"
        }
      ],
      "name": "registerProducer",
      "outputs": [],
      "stateMutability": "nonpayable",
      "type": "function"
    },
    {
      "inputs": [
        {
          "internalType": "address",
          "name": "producer",
          "type": "address"
        },
        {
          "internalType": "address",
          "name": "to",
          "type": "address"
        },
        {
          "internalType": "uint256",
          "name": "creditAmount",
          "type": "uint256"
        }
      ],
      "name": "transferEnergyCredits",
      "outputs": [],
      "stateMutability": "nonpayable",
      "type": "function"
    },
    {
      "inputs": [
        {
          "internalType": "uint256",
          "name": "_newCredits",
          "type": "uint256"
        }
      ],
      "name": "updateEnergyCredits",
      "outputs": [],
      "stateMutability": "nonpayable",
      "type": "function"
    },
    {
      "inputs": [
        {
          "internalType": "uint256",
          "name": "_newPrice",
          "type": "uint256"
        }
      ],
      "name": "updatePricePerUnit",
      "outputs": [],
      "stateMutability": "nonpayable",
      "type": "function"
    },
    {
      "inputs": [
        {
          "internalType": "uint256",
          "name": "amount",
          "type": "uint256"
        }
      ],
      "name": "withdraw",
      "outputs": [],
      "stateMutability": "nonpayable",
      "type": "function"
    }
  ],
  "bytecode": "0x60806040523480156200001157600080fd5b50604051620023d3380380620023d3833981810160405281019062000037919062000129565b336000806101000a81548173ffffffffffffffffffffffffffffffffffffffff021916908373ffffffffffffffffffffffffffffffffffffffff16021790555080600160006101000a81548173ffffffffffffffffffffffffffffffffffffffff021916908373ffffffffffffffffffffffffffffffffffffffff160217905550506200015b565b600080fd5b600073ffffffffffffffffffffffffffffffffffffffff82169050919050565b6000620000f182620000c4565b9050919050565b6200010381620000e4565b81146200010f57600080fd5b50565b6000815190506200012381620000f8565b92915050565b600060208284031215620001425762000141620000bf565b5b6000620001528482850162000112565b91505092915050565b612268806200016b6000396000f3fe608060405234801561001057600080fd5b506004361061010b5760003560e01c80634ec7fb81116100a25780638da5cb5b116100715780638da5cb5b146102a75780638f881d02146102c55780639b126991146102f5578063f9f7ddc314610325578063fb6ef0cb146103415761010b565b80634ec7fb811461021f5780635cb332cc1461023d57806362a2b7cf1461026d5780636f9fb98a146102895761010b565b80632c06779d116100de5780632c06779d146101ad5780632e1a7d4d146101cb57806334bd8264146101e75780634821b367146102035761010b565b80630935e7dc1461011057806312065fe01461012c57806326324eff1461014a57806327e235e31461017d575b600080fd5b61012a60048036038101906101259190611b3a565b610371565b005b6101346107c9565b6040516101419190611b89565b60405180910390f35b610164600480360381019061015f9190611ba4565b61089f565b6040516101749493929190611be0565b60405180910390f35b61019760048036038101906101929190611ba4565b6108ef565b6040516101a49190611b89565b60405180910390f35b6101b5610907565b6040516101c29190611d47565b60405180910390f35b6101e560048036038101906101e09190611d69565b610aa5565b005b61020160048036038101906101fc9190611d96565b610d86565b005b61021d60048036038101906102189190611de9565b6110ae565b005b6102276113af565b6040516102349190611e29565b60405180910390f35b61025760048036038101906102529190611ba4565b6113d5565b6040516102649190611e5f565b60405180910390f35b61028760048036038101906102829190611d69565b6113f5565b005b61029161161f565b60405161029e9190611b89565b60405180910390f35b6102af611751565b6040516102bc9190611e29565b60405180910390f35b6102df60048036038101906102da9190611ba4565b611775565b6040516102ec9190611b89565b60405180910390f35b61030f600480360381019061030a9190611e7a565b61178d565b60405161031c9190611b89565b60405180910390f35b61033f600480360381019061033a9190611d69565b611814565b005b61035b60048036038101906103569190611e7a565b611a3e565b6040516103689190611b89565b60405180910390f35b600073ffffffffffffffffffffffffffffffffffffffff163373ffffffffffffffffffffffffffffffffffffffff16036103d7576040517f287170f900000000000000000000000000000000000000000000000000000000815260040160405180910390fd5b600073ffffffffffffffffffffffffffffffffffffffff168273ffffffffffffffffffffffffffffffffffffffff160361043d576040517f287170f900000000000000000000000000000000000000000000000000000000815260040160405180910390fd5b60008103610477576040517f9cf8540c00000000000000000000000000000000000000000000000000000000815260040160405180910390fd5b6000600360008473ffffffffffffffffffffffffffffffffffffffff1673ffffffffffffffffffffffffffffffffffffffff168152602001908152602001600020905081816001015410156104f8576040517f23fc123c00000000000000000000000000000000000000000000000000000000815260040160405180910390fd5b600081600201548361050a9190611ee9565b905080600160009054906101000a900473ffffffffffffffffffffffffffffffffffffffff1673ffffffffffffffffffffffffffffffffffffffff166370a08231336040518263ffffffff1660e01b81526004016105689190611e29565b602060405180830381865afa158015610585573d6000803e3d6000fd5b505050506040513d601f19601f820116820180604052508101906105a99190611f40565b10156105e1576040517fe4455cae00000000000000000000000000000000000000000000000000000000815260040160405180910390fd5b6000600160009054906101000a900473ffffffffffffffffffffffffffffffffffffffff1673ffffffffffffffffffffffffffffffffffffffff166323b872dd3330856040518463ffffffff1660e01b815260040161064293929190611f6d565b6020604051808303816000875af1158015610661573d6000803e3d6000fd5b505050506040513d601f19601f820116820180604052508101906106859190611fd0565b9050806106be576040517f90b8ec1800000000000000000000000000000000000000000000000000000000815260040160405180910390fd5b838360010160008282546106d29190611ffd565b92505081905550818360030160008282546106ed9190612031565b9250508190555083600560008773ffffffffffffffffffffffffffffffffffffffff1673ffffffffffffffffffffffffffffffffffffffff16815260200190815260200160002060003373ffffffffffffffffffffffffffffffffffffffff1673ffffffffffffffffffffffffffffffffffffffff16815260200190815260200160002060008282546107809190612031565b925050819055507f718ea2b924abd563212f61f1942c1abd50d26d266f0d5fbba7c67c157706f3463386866040516107ba93929190611f6d565b60405180910390a15050505050565b6000600760003373ffffffffffffffffffffffffffffffffffffffff1673ffffffffffffffffffffffffffffffffffffffff16815260200190815260200160002060009054906101000a900460ff16610857576040517f08c379a000000000000000000000000000000000000000000000000000000000815260040161084e906120c2565b60405180910390fd5b600360003373ffffffffffffffffffffffffffffffffffffffff1673ffffffffffffffffffffffffffffffffffffffff16815260200190815260200160002060030154905090565b60036020528060005260406000206000915090508060000160009054906101000a900473ffffffffffffffffffffffffffffffffffffffff16908060010154908060020154908060030154905084565b60046020528060005260406000206000915090505481565b6060600060028054905067ffffffffffffffff81111561092a576109296120e2565b5b60405190808252806020026020018201604052801561096357816020015b610950611a63565b8152602001906001900390816109485790505b50905060005b600280549050811015610a9d57600360006002838154811061098e5761098d612111565b5b9060005260206000200160009054906101000a900473ffffffffffffffffffffffffffffffffffffffff1673ffffffffffffffffffffffffffffffffffffffff1673ffffffffffffffffffffffffffffffffffffffff1681526020019081526020016000206040518060800160405290816000820160009054906101000a900473ffffffffffffffffffffffffffffffffffffffff1673ffffffffffffffffffffffffffffffffffffffff1673ffffffffffffffffffffffffffffffffffffffff1681526020016001820154815260200160028201548152602001600382015481525050828281518110610a8557610a84612111565b5b60200260200101819052508080600101915050610969565b508091505090565b600760003373ffffffffffffffffffffffffffffffffffffffff1673ffffffffffffffffffffffffffffffffffffffff16815260200190815260200160002060009054906101000a900460ff16610b31576040517f08c379a0000000000000000000000000000000000000000000000000000000008152600401610b28906120c2565b60405180910390fd5b600073ffffffffffffffffffffffffffffffffffffffff163373ffffffffffffffffffffffffffffffffffffffff1603610b97576040517f287170f900000000000000000000000000000000000000000000000000000000815260040160405180910390fd5b60008103610bd1576040517f9cf8540c00000000000000000000000000000000000000000000000000000000815260040160405180910390fd5b6000600360003373ffffffffffffffffffffffffffffffffffffffff1673ffffffffffffffffffffffffffffffffffffffff16815260200190815260200160002090508181600301541015610c52576040517ff4d678b800000000000000000000000000000000000000000000000000000000815260040160405180910390fd5b81816003016000828254610c669190611ffd565b925050819055506000600160009054906101000a900473ffffffffffffffffffffffffffffffffffffffff1673ffffffffffffffffffffffffffffffffffffffff1663a9059cbb33856040518363ffffffff1660e01b8152600401610ccc929190612140565b6020604051808303816000875af1158015610ceb573d6000803e3d6000fd5b505050506040513d601f19601f82011682018060405250810190610d0f9190611fd0565b905080610d48576040517f90b8ec1800000000000000000000000000000000000000000000000000000000815260040160405180910390fd5b7fa036a99ff2995842f3d2887a91651a0bf47ed437d338d1e78baca66b7d540c923384604051610d79929190612140565b60405180910390a1505050565b600073ffffffffffffffffffffffffffffffffffffffff163373ffffffffffffffffffffffffffffffffffffffff1603610dec576040517f287170f900000000000000000000000000000000000000000000000000000000815260040160405180910390fd5b600073ffffffffffffffffffffffffffffffffffffffff168273ffffffffffffffffffffffffffffffffffffffff1603610e52576040517f287170f900000000000000000000000000000000000000000000000000000000815260040160405180910390fd5b60008103610e8c576040517f9cf8540c00000000000000000000000000000000000000000000000000000000815260040160405180910390fd5b6000600560008573ffffffffffffffffffffffffffffffffffffffff1673ffffffffffffffffffffffffffffffffffffffff16815260200190815260200160002060003373ffffffffffffffffffffffffffffffffffffffff1673ffffffffffffffffffffffffffffffffffffffff16815260200190815260200160002054905081811015610f47576040517f745e604e00000000000000000000000000000000000000000000000000000000815260040160405180910390fd5b81600560008673ffffffffffffffffffffffffffffffffffffffff1673ffffffffffffffffffffffffffffffffffffffff16815260200190815260200160002060003373ffffffffffffffffffffffffffffffffffffffff1673ffffffffffffffffffffffffffffffffffffffff1681526020019081526020016000206000828254610fd39190611ffd565b9250508190555081600560008673ffffffffffffffffffffffffffffffffffffffff1673ffffffffffffffffffffffffffffffffffffffff16815260200190815260200160002060008573ffffffffffffffffffffffffffffffffffffffff1673ffffffffffffffffffffffffffffffffffffffff16815260200190815260200160002060008282546110669190612031565b925050819055507f547bed4b3ba137cb6c2b28b5b218547591b7edded204b778814ad88c6efc600a3384846040516110a093929190611f6d565b60405180910390a150505050565b600073ffffffffffffffffffffffffffffffffffffffff163373ffffffffffffffffffffffffffffffffffffffff1603611114576040517f287170f900000000000000000000000000000000000000000000000000000000815260040160405180910390fd5b60008214806111235750600081145b1561115a576040517f9cf8540c00000000000000000000000000000000000000000000000000000000815260040160405180910390fd5b6000600360003373ffffffffffffffffffffffffffffffffffffffff1673ffffffffffffffffffffffffffffffffffffffff16815260200190815260200160002060010154146111d6576040517f7b00c82400000000000000000000000000000000000000000000000000000000815260040160405180910390fd5b60405180608001604052803373ffffffffffffffffffffffffffffffffffffffff1681526020018381526020018281526020016000815250600360003373ffffffffffffffffffffffffffffffffffffffff1673ffffffffffffffffffffffffffffffffffffffff16815260200190815260200160002060008201518160000160006101000a81548173ffffffffffffffffffffffffffffffffffffffff021916908373ffffffffffffffffffffffffffffffffffffffff1602179055506020820151816001015560408201518160020155606082015181600301559050506002339080600181540180825580915050600190039060005260206000200160009091909190916101000a81548173ffffffffffffffffffffffffffffffffffffffff021916908373ffffffffffffffffffffffffffffffffffffffff1602179055506001600760003373ffffffffffffffffffffffffffffffffffffffff1673ffffffffffffffffffffffffffffffffffffffff16815260200190815260200160002060006101000a81548160ff0219169083151502179055507f33f678b359981e7513d2ed7481c6ce365bd93ad4e85b430e50684745acf8f40a3383836040516113a393929190612169565b60405180910390a15050565b600160009054906101000a900473ffffffffffffffffffffffffffffffffffffffff1681565b60076020528060005260406000206000915054906101000a900460ff1681565b600760003373ffffffffffffffffffffffffffffffffffffffff1673ffffffffffffffffffffffffffffffffffffffff16815260200190815260200160002060009054906101000a900460ff16611481576040517f08c379a0000000000000000000000000000000000000000000000000000000008152600401611478906120c2565b60405180910390fd5b600073ffffffffffffffffffffffffffffffffffffffff163373ffffffffffffffffffffffffffffffffffffffff16036114e7576040517f287170f900000000000000000000000000000000000000000000000000000000815260040160405180910390fd5b80600360003373ffffffffffffffffffffffffffffffffffffffff1673ffffffffffffffffffffffffffffffffffffffff1681526020019081526020016000206001015403611562576040517f18b048f300000000000000000000000000000000000000000000000000000000815260040160405180910390fd5b6000810361159c576040517f9cf8540c00000000000000000000000000000000000000000000000000000000815260040160405180910390fd5b80600360003373ffffffffffffffffffffffffffffffffffffffff1673ffffffffffffffffffffffffffffffffffffffff168152602001908152602001600020600101819055507f873d3ad8530cf7f4b0f345bed21dd0978146051a43f99945c7ebbfa87ab62e583382604051611614929190612140565b60405180910390a150565b60008060009054906101000a900473ffffffffffffffffffffffffffffffffffffffff1673ffffffffffffffffffffffffffffffffffffffff163373ffffffffffffffffffffffffffffffffffffffff16146116b0576040517f08c379a00000000000000000000000000000000000000000000000000000000081526004016116a790612212565b60405180910390fd5b600160009054906101000a900473ffffffffffffffffffffffffffffffffffffffff1673ffffffffffffffffffffffffffffffffffffffff166370a08231306040518263ffffffff1660e01b815260040161170b9190611e29565b602060405180830381865afa158015611728573d6000803e3d6000fd5b505050506040513d601f19601f8201168201806040525081019061174c9190611f40565b905090565b60008054906101000a900473ffffffffffffffffffffffffffffffffffffffff1681565b60066020528060005260406000206000915090505481565b6000600560008473ffffffffffffffffffffffffffffffffffffffff1673ffffffffffffffffffffffffffffffffffffffff16815260200190815260200160002060008373ffffffffffffffffffffffffffffffffffffffff1673ffffffffffffffffffffffffffffffffffffffff16815260200190815260200160002054905092915050565b600760003373ffffffffffffffffffffffffffffffffffffffff1673ffffffffffffffffffffffffffffffffffffffff16815260200190815260200160002060009054906101000a900460ff166118a0576040517f08c379a0000000000000000000000000000000000000000000000000000000008152600401611897906120c2565b60405180910390fd5b600073ffffffffffffffffffffffffffffffffffffffff163373ffffffffffffffffffffffffffffffffffffffff1603611906576040517f287170f900000000000000000000000000000000000000000000000000000000815260040160405180910390fd5b80600360003373ffffffffffffffffffffffffffffffffffffffff1673ffffffffffffffffffffffffffffffffffffffff1681526020019081526020016000206002015403611981576040517f18b048f300000000000000000000000000000000000000000000000000000000815260040160405180910390fd5b600081036119bb576040517f9cf8540c00000000000000000000000000000000000000000000000000000000815260040160405180910390fd5b80600360003373ffffffffffffffffffffffffffffffffffffffff1673ffffffffffffffffffffffffffffffffffffffff168152602001908152602001600020600201819055507f0d86730737b142fc160892fa8a0f2db687a92a0e294d1ad70624cf5acef03b843382604051611a33929190612140565b60405180910390a150565b6005602052816000526040600020602052806000526040600020600091509150505481565b6040518060800160405280600073ffffffffffffffffffffffffffffffffffffffff1681526020016000815260200160008152602001600081525090565b600080fd5b600073ffffffffffffffffffffffffffffffffffffffff82169050919050565b6000611ad182611aa6565b9050919050565b611ae181611ac6565b8114611aec57600080fd5b50565b600081359050611afe81611ad8565b92915050565b6000819050919050565b611b1781611b04565b8114611b2257600080fd5b50565b600081359050611b3481611b0e565b92915050565b60008060408385031215611b5157611b50611aa1565b5b6000611b5f85828601611aef565b9250506020611b7085828601611b25565b9150509250929050565b611b8381611b04565b82525050565b6000602082019050611b9e6000830184611b7a565b92915050565b600060208284031215611bba57611bb9611aa1565b5b6000611bc884828501611aef565b91505092915050565b611bda81611ac6565b82525050565b6000608082019050611bf56000830187611bd1565b611c026020830186611b7a565b611c0f6040830185611b7a565b611c1c6060830184611b7a565b95945050505050565b600081519050919050565b600082825260208201905092915050565b6000819050602082019050919050565b611c5a81611ac6565b82525050565b611c6981611b04565b82525050565b608082016000820151611c856000850182611c51565b506020820151611c986020850182611c60565b506040820151611cab6040850182611c60565b506060820151611cbe6060850182611c60565b50505050565b6000611cd08383611c6f565b60808301905092915050565b6000602082019050919050565b6000611cf482611c25565b611cfe8185611c30565b9350611d0983611c41565b8060005b83811015611d3a578151611d218882611cc4565b9750611d2c83611cdc565b925050600181019050611d0d565b5085935050505092915050565b60006020820190508181036000830152611d618184611ce9565b905092915050565b600060208284031215611d7f57611d7e611aa1565b5b6000611d8d84828501611b25565b91505092915050565b600080600060608486031215611daf57611dae611aa1565b5b6000611dbd86828701611aef565b9350506020611dce86828701611aef565b9250506040611ddf86828701611b25565b9150509250925092565b60008060408385031215611e0057611dff611aa1565b5b6000611e0e85828601611b25565b9250506020611e1f85828601611b25565b9150509250929050565b6000602082019050611e3e6000830184611bd1565b92915050565b60008115159050919050565b611e5981611e44565b82525050565b6000602082019050611e746000830184611e50565b92915050565b60008060408385031215611e9157611e90611aa1565b5b6000611e9f85828601611aef565b9250506020611eb085828601611aef565b9150509250929050565b7f4e487b7100000000000000000000000000000000000000000000000000000000600052601160045260246000fd5b6000611ef482611b04565b9150611eff83611b04565b9250828202611f0d81611b04565b91508282048414831517611f2457611f23611eba565b5b5092915050565b600081519050611f3a81611b0e565b92915050565b600060208284031215611f5657611f55611aa1565b5b6000611f6484828501611f2b565b91505092915050565b6000606082019050611f826000830186611bd1565b611f8f6020830185611bd1565b611f9c6040830184611b7a565b949350505050565b611fad81611e44565b8114611fb857600080fd5b50565b600081519050611fca81611fa4565b92915050565b600060208284031215611fe657611fe5611aa1565b5b6000611ff484828501611fbb565b91505092915050565b600061200882611b04565b915061201383611b04565b925082820390508181111561202b5761202a611eba565b5b92915050565b600061203c82611b04565b915061204783611b04565b925082820190508082111561205f5761205e611eba565b5b92915050565b600082825260208201905092915050565b7f43616c6c6572206973206e6f7420612070726f64756365720000000000000000600082015250565b60006120ac601883612065565b91506120b782612076565b602082019050919050565b600060208201905081810360008301526120db8161209f565b9050919050565b7f4e487b7100000000000000000000000000000000000000000000000000000000600052604160045260246000fd5b7f4e487b7100000000000000000000000000000000000000000000000000000000600052603260045260246000fd5b60006040820190506121556000830185611bd1565b6121626020830184611b7a565b9392505050565b600060608201905061217e6000830186611bd1565b61218b6020830185611b7a565b6121986040830184611b7a565b949350505050565b7f4f6e6c79206f776e65722063616e2063616c6c20746869732066756e6374696f60008201527f6e00000000000000000000000000000000000000000000000000000000000000602082015250565b60006121fc602183612065565b9150612207826121a0565b604082019050919050565b6000602082019050818103600083015261222b816121ef565b905091905056fea26469706673582212205738322d4e745b52598ef2d95055157b4f468230400071760c1e180a2a644cb864736f6c63430008180033",
  "linkReferences": {},
  "deployedLinkReferences": {}
}